{
    "contractName": "SmartToken",
    "abi": [
        {
            "inputs": [
                {
                    "internalType": "string",
                    "name": "_name",
                    "type": "string"
                },
                {
                    "internalType": "string",
                    "name": "_symbol",
                    "type": "string"
                },
                {
                    "internalType": "contract IERC20",
                    "name": "_token",
                    "type": "address"
                }
            ],
            "stateMutability": "nonpayable",
            "type": "constructor"
        },
        {
            "anonymous": false,
            "inputs": [
                {
                    "indexed": true,
                    "internalType": "address",
                    "name": "owner",
                    "type": "address"
                },
                {
                    "indexed": true,
                    "internalType": "address",
                    "name": "spender",
                    "type": "address"
                },
                {
                    "indexed": false,
                    "internalType": "uint256",
                    "name": "value",
                    "type": "uint256"
                }
            ],
            "name": "Approval",
            "type": "event"
        },
        {
            "anonymous": false,
            "inputs": [
                {
                    "indexed": true,
                    "internalType": "address",
                    "name": "buyer",
                    "type": "address"
                },
                {
                    "indexed": true,
                    "internalType": "uint256",
                    "name": "amount",
                    "type": "uint256"
                },
                {
                    "indexed": false,
                    "internalType": "uint256",
                    "name": "paid",
                    "type": "uint256"
                }
            ],
            "name": "Buy",
            "type": "event"
        },
        {
            "anonymous": false,
            "inputs": [
                {
                    "indexed": true,
                    "internalType": "address",
                    "name": "previousOwner",
                    "type": "address"
                },
                {
                    "indexed": true,
                    "internalType": "address",
                    "name": "newOwner",
                    "type": "address"
                }
            ],
            "name": "OwnershipTransferred",
            "type": "event"
        },
        {
            "anonymous": false,
            "inputs": [
                {
                    "indexed": true,
                    "internalType": "address",
                    "name": "seller",
                    "type": "address"
                },
                {
                    "indexed": true,
                    "internalType": "uint256",
                    "name": "amount",
                    "type": "uint256"
                },
                {
                    "indexed": false,
                    "internalType": "uint256",
                    "name": "received",
                    "type": "uint256"
                }
            ],
            "name": "Sell",
            "type": "event"
        },
        {
            "anonymous": false,
            "inputs": [
                {
                    "indexed": true,
                    "internalType": "address",
                    "name": "from",
                    "type": "address"
                },
                {
                    "indexed": true,
                    "internalType": "address",
                    "name": "to",
                    "type": "address"
                },
                {
                    "indexed": false,
                    "internalType": "uint256",
                    "name": "value",
                    "type": "uint256"
                }
            ],
            "name": "Transfer",
            "type": "event"
        },
        {
            "inputs": [
                {
                    "internalType": "address",
                    "name": "owner",
                    "type": "address"
                },
                {
                    "internalType": "address",
                    "name": "spender",
                    "type": "address"
                }
            ],
            "name": "allowance",
            "outputs": [
                {
                    "internalType": "uint256",
                    "name": "",
                    "type": "uint256"
                }
            ],
            "stateMutability": "view",
            "type": "function"
        },
        {
            "inputs": [
                {
                    "internalType": "address",
                    "name": "spender",
                    "type": "address"
                },
                {
                    "internalType": "uint256",
                    "name": "amount",
                    "type": "uint256"
                }
            ],
            "name": "approve",
            "outputs": [
                {
                    "internalType": "bool",
                    "name": "",
                    "type": "bool"
                }
            ],
            "stateMutability": "nonpayable",
            "type": "function"
        },
        {
            "inputs": [
                {
                    "internalType": "address",
                    "name": "account",
                    "type": "address"
                }
            ],
            "name": "balanceOf",
            "outputs": [
                {
                    "internalType": "uint256",
                    "name": "",
                    "type": "uint256"
                }
            ],
            "stateMutability": "view",
            "type": "function"
        },
        {
            "inputs": [
                {
                    "internalType": "uint256",
                    "name": "_amount",
                    "type": "uint256"
                }
            ],
            "name": "buy",
            "outputs": [],
            "stateMutability": "nonpayable",
            "type": "function"
        },
        {
            "inputs": [
                {
                    "internalType": "uint256",
                    "name": "_tokenSupply",
                    "type": "uint256"
                },
                {
                    "internalType": "uint256",
                    "name": "_purchaseAmount",
                    "type": "uint256"
                }
            ],
            "name": "calculatePurchaseReturn",
            "outputs": [
                {
                    "internalType": "uint256",
                    "name": "",
                    "type": "uint256"
                }
            ],
            "stateMutability": "view",
            "type": "function"
        },
        {
            "inputs": [
                {
                    "internalType": "uint256",
                    "name": "_tokenSupply",
                    "type": "uint256"
                },
                {
                    "internalType": "uint256",
                    "name": "_sellAmount",
                    "type": "uint256"
                }
            ],
            "name": "calculateSalesReturn",
            "outputs": [
                {
                    "internalType": "uint256",
                    "name": "",
                    "type": "uint256"
                }
            ],
            "stateMutability": "view",
            "type": "function"
        },
        {
            "inputs": [],
            "name": "decimals",
            "outputs": [
                {
                    "internalType": "uint8",
                    "name": "",
                    "type": "uint8"
                }
            ],
            "stateMutability": "view",
            "type": "function"
        },
        {
            "inputs": [
                {
                    "internalType": "address",
                    "name": "spender",
                    "type": "address"
                },
                {
                    "internalType": "uint256",
                    "name": "subtractedValue",
                    "type": "uint256"
                }
            ],
            "name": "decreaseAllowance",
            "outputs": [
                {
                    "internalType": "bool",
                    "name": "",
                    "type": "bool"
                }
            ],
            "stateMutability": "nonpayable",
            "type": "function"
        },
        {
            "inputs": [
                {
                    "internalType": "uint256",
                    "name": "_x",
                    "type": "uint256"
                }
            ],
            "name": "exponent",
            "outputs": [
                {
                    "internalType": "uint256",
                    "name": "",
                    "type": "uint256"
                }
            ],
            "stateMutability": "view",
            "type": "function"
        },
        {
            "inputs": [
                {
                    "internalType": "uint256",
                    "name": "_amount",
                    "type": "uint256"
                }
            ],
            "name": "getBuyPrice",
            "outputs": [
                {
                    "internalType": "uint256",
                    "name": "",
                    "type": "uint256"
                }
            ],
            "stateMutability": "view",
            "type": "function"
        },
        {
            "inputs": [
                {
                    "internalType": "uint256",
                    "name": "_amount",
                    "type": "uint256"
                }
            ],
            "name": "getSellPrice",
            "outputs": [
                {
                    "internalType": "uint256",
                    "name": "",
                    "type": "uint256"
                }
            ],
            "stateMutability": "view",
            "type": "function"
        },
        {
            "inputs": [
                {
                    "internalType": "address",
                    "name": "spender",
                    "type": "address"
                },
                {
                    "internalType": "uint256",
                    "name": "addedValue",
                    "type": "uint256"
                }
            ],
            "name": "increaseAllowance",
            "outputs": [
                {
                    "internalType": "bool",
                    "name": "",
                    "type": "bool"
                }
            ],
            "stateMutability": "nonpayable",
            "type": "function"
        },
        {
            "inputs": [
                {
                    "internalType": "address",
                    "name": "_account",
                    "type": "address"
                },
                {
                    "internalType": "uint256",
                    "name": "_amount",
                    "type": "uint256"
                }
            ],
            "name": "mint",
            "outputs": [],
            "stateMutability": "nonpayable",
            "type": "function"
        },
        {
            "inputs": [],
            "name": "name",
            "outputs": [
                {
                    "internalType": "string",
                    "name": "",
                    "type": "string"
                }
            ],
            "stateMutability": "view",
            "type": "function"
        },
        {
            "inputs": [],
            "name": "owner",
            "outputs": [
                {
                    "internalType": "address",
                    "name": "",
                    "type": "address"
                }
            ],
            "stateMutability": "view",
            "type": "function"
        },
        {
            "inputs": [],
            "name": "renounceOwnership",
            "outputs": [],
            "stateMutability": "nonpayable",
            "type": "function"
        },
        {
            "inputs": [],
            "name": "reserveToken",
            "outputs": [
                {
                    "internalType": "contract IERC20",
                    "name": "",
                    "type": "address"
                }
            ],
            "stateMutability": "view",
            "type": "function"
        },
        {
            "inputs": [
                {
                    "internalType": "uint256",
                    "name": "_amount",
                    "type": "uint256"
                }
            ],
            "name": "sell",
            "outputs": [],
            "stateMutability": "nonpayable",
            "type": "function"
        },
        {
            "inputs": [],
            "name": "symbol",
            "outputs": [
                {
                    "internalType": "string",
                    "name": "",
                    "type": "string"
                }
            ],
            "stateMutability": "view",
            "type": "function"
        },
        {
            "inputs": [],
            "name": "totalSupply",
            "outputs": [
                {
                    "internalType": "uint256",
                    "name": "",
                    "type": "uint256"
                }
            ],
            "stateMutability": "view",
            "type": "function"
        },
        {
            "inputs": [
                {
                    "internalType": "address",
                    "name": "recipient",
                    "type": "address"
                },
                {
                    "internalType": "uint256",
                    "name": "amount",
                    "type": "uint256"
                }
            ],
            "name": "transfer",
            "outputs": [
                {
                    "internalType": "bool",
                    "name": "",
                    "type": "bool"
                }
            ],
            "stateMutability": "nonpayable",
            "type": "function"
        },
        {
            "inputs": [
                {
                    "internalType": "address",
                    "name": "sender",
                    "type": "address"
                },
                {
                    "internalType": "address",
                    "name": "recipient",
                    "type": "address"
                },
                {
                    "internalType": "uint256",
                    "name": "amount",
                    "type": "uint256"
                }
            ],
            "name": "transferFrom",
            "outputs": [
                {
                    "internalType": "bool",
                    "name": "",
                    "type": "bool"
                }
            ],
            "stateMutability": "nonpayable",
            "type": "function"
        },
        {
            "inputs": [
                {
                    "internalType": "address",
                    "name": "newOwner",
                    "type": "address"
                }
            ],
            "name": "transferOwnership",
            "outputs": [],
            "stateMutability": "nonpayable",
            "type": "function"
        }
    ],
    "bytecode": "60a06040523480156200001157600080fd5b50604051620016c2380380620016c283398101604081905262000034916200024c565b8251839083906200004d906003906020850190620000ef565b50805162000063906004906020840190620000ef565b505050620000806200007a6200009960201b60201c565b6200009d565b60601b6001600160601b031916608052506200032c9050565b3390565b600580546001600160a01b038381166001600160a01b0319831681179093556040519116919082907f8be0079c531659141344cd1fd0a4f28419497f9722a3daafe3b4186f6b6457e090600090a35050565b828054620000fd90620002d9565b90600052602060002090601f0160209004810192826200012157600085556200016c565b82601f106200013c57805160ff19168380011785556200016c565b828001600101855582156200016c579182015b828111156200016c5782518255916020019190600101906200014f565b506200017a9291506200017e565b5090565b5b808211156200017a57600081556001016200017f565b600082601f830112620001a757600080fd5b81516001600160401b0380821115620001c457620001c462000316565b604051601f8301601f19908116603f01168101908282118183101715620001ef57620001ef62000316565b816040528381526020925086838588010111156200020c57600080fd5b600091505b8382101562000230578582018301518183018401529082019062000211565b83821115620002425760008385830101525b9695505050505050565b6000806000606084860312156200026257600080fd5b83516001600160401b03808211156200027a57600080fd5b620002888783880162000195565b945060208601519150808211156200029f57600080fd5b50620002ae8682870162000195565b604086015190935090506001600160a01b0381168114620002ce57600080fd5b809150509250925092565b600181811c90821680620002ee57607f821691505b602082108114156200031057634e487b7160e01b600052602260045260246000fd5b50919050565b634e487b7160e01b600052604160045260246000fd5b60805160601c611362620003606000396000818161034d0152818161077a0152818161087a01526109dc01526113626000f3fe608060405234801561001057600080fd5b506004361061014d5760003560e01c8063715018a6116100c3578063ba730e531161007c578063ba730e53146102c3578063d96a094a146102d6578063dd62ed3e146102e9578063e4849b3214610322578063f2fde38b14610335578063f4325d671461034857600080fd5b8063715018a6146102555780638da5cb5b1461025d57806395d89b4114610282578063a457c2d71461028a578063a9059cbb1461029d578063ace4e824146102b057600080fd5b806318160ddd1161011557806318160ddd146101da57806323b872dd146101e2578063313ce567146101f5578063395093511461020457806340c10f191461021757806370a082311461022c57600080fd5b806306fdde031461015257806308d4db1414610170578063095ea7b3146101915780630e24a12a146101b45780630f80fc58146101c7575b600080fd5b61015a61036f565b60405161016791906111e1565b60405180910390f35b61018361017e36600461118d565b610401565b604051908152602001610167565b6101a461019f366004611141565b610448565b6040519015158152602001610167565b6101836101c23660046111bf565b61045e565b6101836101d536600461118d565b6104a8565b600254610183565b6101a46101f0366004611105565b6104ba565b60405160128152602001610167565b6101a4610212366004611141565b610569565b61022a610225366004611141565b6105a5565b005b61018361023a3660046110b7565b6001600160a01b031660009081526020819052604090205490565b61022a6105dd565b6005546001600160a01b03165b6040516001600160a01b039091168152602001610167565b61015a610613565b6101a4610298366004611141565b610622565b6101a46102ab366004611141565b6106bb565b6101836102be3660046111bf565b6106c8565b6101836102d136600461118d565b6106f3565b61022a6102e436600461118d565b610733565b6101836102f73660046110d2565b6001600160a01b03918216600090815260016020908152604080832093909416825291909152205490565b61022a61033036600461118d565b610945565b61022a6103433660046110b7565b610a95565b61026a7f000000000000000000000000000000000000000000000000000000000000000081565b60606003805461037e906112db565b80601f01602080910402602001604051908101604052809291908181526020018280546103aa906112db565b80156103f75780601f106103cc576101008083540402835291602001916103f7565b820191906000526020600020905b8154815290600101906020018083116103da57829003601f168201915b5050505050905090565b6000610415670de0b6b3a764000083611283565b91506000670de0b6b3a764000061042b60025490565b6104359190611283565b905061044181846106c8565b9392505050565b6000610455338484610b30565b50600192915050565b600080600261046c856104a8565b6104769190611283565b9050600060026104896101d586886112c4565b6104939190611283565b905061049f81836112c4565b95945050505050565b60006104b482806112a5565b92915050565b60006104c7848484610c55565b6001600160a01b0384166000908152600160209081526040808320338452909152902054828110156105515760405162461bcd60e51b815260206004820152602860248201527f45524332303a207472616e7366657220616d6f756e74206578636565647320616044820152676c6c6f77616e636560c01b60648201526084015b60405180910390fd5b61055e8533858403610b30565b506001949350505050565b3360008181526001602090815260408083206001600160a01b038716845290915281205490916104559185906105a090869061126b565b610b30565b6005546001600160a01b031633146105cf5760405162461bcd60e51b815260040161054890611236565b6105d98282610e24565b5050565b6005546001600160a01b031633146106075760405162461bcd60e51b815260040161054890611236565b6106116000610f03565b565b60606004805461037e906112db565b3360009081526001602090815260408083206001600160a01b0386168452909152812054828110156106a45760405162461bcd60e51b815260206004820152602560248201527f45524332303a2064656372656173656420616c6c6f77616e63652062656c6f77604482015264207a65726f60d81b6064820152608401610548565b6106b13385858403610b30565b5060019392505050565b6000610455338484610c55565b60008060026106da6101d5858761126b565b6106e49190611283565b905060006002610489866104a8565b6000610707670de0b6b3a764000083611283565b91506000670de0b6b3a764000061071d60025490565b6107279190611283565b9050610441818461045e565b600061073e82610401565b905061075281670de0b6b3a76400006112a5565b604051636eb1769f60e11b815233600482015230602482015290915081906001600160a01b037f0000000000000000000000000000000000000000000000000000000000000000169063dd62ed3e9060440160206040518083038186803b1580156107bc57600080fd5b505afa1580156107d0573d6000803e3d6000fd5b505050506040513d601f19601f820116820180604052508101906107f491906111a6565b10156108585760405162461bcd60e51b815260206004820152602d60248201527f536d617274546f6b656e3a207472616e7366657220616d6f756e74206578636560448201526c65647320616c6c6f77616e636560981b6064820152608401610548565b6040516323b872dd60e01b8152336004820152306024820152604481018290527f00000000000000000000000000000000000000000000000000000000000000006001600160a01b0316906323b872dd90606401602060405180830381600087803b1580156108c657600080fd5b505af11580156108da573d6000803e3d6000fd5b505050506040513d601f19601f820116820180604052508101906108fe919061116b565b506109093383610e24565b604051818152829033907f1cbc5ab135991bd2b6a4b034a04aa2aa086dac1371cb9b16b8b5e2ed6b036bed906020015b60405180910390a35050565b600081116109955760405162461bcd60e51b815260206004820152601f60248201527f536d617274546f6b656e3a20696e76616c69642073656c6c20616d6f756e74006044820152606401610548565b60006109a0826106f3565b90506109b481670de0b6b3a76400006112a5565b90506109c03383610f55565b60405163a9059cbb60e01b8152336004820152602481018290527f00000000000000000000000000000000000000000000000000000000000000006001600160a01b03169063a9059cbb90604401602060405180830381600087803b158015610a2857600080fd5b505af1158015610a3c573d6000803e3d6000fd5b505050506040513d601f19601f82011682018060405250810190610a60919061116b565b50604051818152829033907fed7a144fad14804d5c249145e3e0e2b63a9eb455b76aee5bc92d711e9bba3e4a90602001610939565b6005546001600160a01b03163314610abf5760405162461bcd60e51b815260040161054890611236565b6001600160a01b038116610b245760405162461bcd60e51b815260206004820152602660248201527f4f776e61626c653a206e6577206f776e657220697320746865207a65726f206160448201526564647265737360d01b6064820152608401610548565b610b2d81610f03565b50565b6001600160a01b038316610b925760405162461bcd60e51b8152602060048201526024808201527f45524332303a20617070726f76652066726f6d20746865207a65726f206164646044820152637265737360e01b6064820152608401610548565b6001600160a01b038216610bf35760405162461bcd60e51b815260206004820152602260248201527f45524332303a20617070726f766520746f20746865207a65726f206164647265604482015261737360f01b6064820152608401610548565b6001600160a01b0383811660008181526001602090815260408083209487168084529482529182902085905590518481527f8c5be1e5ebec7d5bd14f71427d1e84f3dd0314c0f7b2291e5b200ac8c7c3b92591015b60405180910390a3505050565b6001600160a01b038316610cb95760405162461bcd60e51b815260206004820152602560248201527f45524332303a207472616e736665722066726f6d20746865207a65726f206164604482015264647265737360d81b6064820152608401610548565b6001600160a01b038216610d1b5760405162461bcd60e51b815260206004820152602360248201527f45524332303a207472616e7366657220746f20746865207a65726f206164647260448201526265737360e81b6064820152608401610548565b6001600160a01b03831660009081526020819052604090205481811015610d935760405162461bcd60e51b815260206004820152602660248201527f45524332303a207472616e7366657220616d6f756e7420657863656564732062604482015265616c616e636560d01b6064820152608401610548565b6001600160a01b03808516600090815260208190526040808220858503905591851681529081208054849290610dca90849061126b565b92505081905550826001600160a01b0316846001600160a01b03167fddf252ad1be2c89b69c2b068fc378daa952ba7f163c4a11628f55a4df523b3ef84604051610e1691815260200190565b60405180910390a350505050565b6001600160a01b038216610e7a5760405162461bcd60e51b815260206004820152601f60248201527f45524332303a206d696e7420746f20746865207a65726f2061646472657373006044820152606401610548565b8060026000828254610e8c919061126b565b90915550506001600160a01b03821660009081526020819052604081208054839290610eb990849061126b565b90915550506040518181526001600160a01b038316906000907fddf252ad1be2c89b69c2b068fc378daa952ba7f163c4a11628f55a4df523b3ef9060200160405180910390a35050565b600580546001600160a01b038381166001600160a01b0319831681179093556040519116919082907f8be0079c531659141344cd1fd0a4f28419497f9722a3daafe3b4186f6b6457e090600090a35050565b6001600160a01b038216610fb55760405162461bcd60e51b815260206004820152602160248201527f45524332303a206275726e2066726f6d20746865207a65726f206164647265736044820152607360f81b6064820152608401610548565b6001600160a01b038216600090815260208190526040902054818110156110295760405162461bcd60e51b815260206004820152602260248201527f45524332303a206275726e20616d6f756e7420657863656564732062616c616e604482015261636560f01b6064820152608401610548565b6001600160a01b03831660009081526020819052604081208383039055600280548492906110589084906112c4565b90915550506040518281526000906001600160a01b038516907fddf252ad1be2c89b69c2b068fc378daa952ba7f163c4a11628f55a4df523b3ef90602001610c48565b80356001600160a01b03811681146110b257600080fd5b919050565b6000602082840312156110c957600080fd5b6104418261109b565b600080604083850312156110e557600080fd5b6110ee8361109b565b91506110fc6020840161109b565b90509250929050565b60008060006060848603121561111a57600080fd5b6111238461109b565b92506111316020850161109b565b9150604084013590509250925092565b6000806040838503121561115457600080fd5b61115d8361109b565b946020939093013593505050565b60006020828403121561117d57600080fd5b8151801515811461044157600080fd5b60006020828403121561119f57600080fd5b5035919050565b6000602082840312156111b857600080fd5b5051919050565b600080604083850312156111d257600080fd5b50508035926020909101359150565b600060208083528351808285015260005b8181101561120e578581018301518582016040015282016111f2565b81811115611220576000604083870101525b50601f01601f1916929092016040019392505050565b6020808252818101527f4f776e61626c653a2063616c6c6572206973206e6f7420746865206f776e6572604082015260600190565b6000821982111561127e5761127e611316565b500190565b6000826112a057634e487b7160e01b600052601260045260246000fd5b500490565b60008160001904831182151516156112bf576112bf611316565b500290565b6000828210156112d6576112d6611316565b500390565b600181811c908216806112ef57607f821691505b6020821081141561131057634e487b7160e01b600052602260045260246000fd5b50919050565b634e487b7160e01b600052601160045260246000fdfea264697066735822122033a30adde61f1fac42afffa7de4f758ad1ed6c95aff069a352da0229fe19d34764736f6c63430008060033",
    "sourcePath": "/Users/kifen/Dev/misc/SmartToken/contracts/SmartToken.sol",
    "compiler": {
        "name": "solc",
        "version": "0.8.6+commit.11564f7e"
    },
    "functionHashes": {
        "allowance(address,address)": "dd62ed3e",
        "approve(address,uint256)": "095ea7b3",
        "balanceOf(address)": "70a08231",
        "buy(uint256)": "d96a094a",
        "calculatePurchaseReturn(uint256,uint256)": "ace4e824",
        "calculateSalesReturn(uint256,uint256)": "0e24a12a",
        "decimals()": "313ce567",
        "decreaseAllowance(address,uint256)": "a457c2d7",
        "exponent(uint256)": "0f80fc58",
        "getBuyPrice(uint256)": "08d4db14",
        "getSellPrice(uint256)": "ba730e53",
        "increaseAllowance(address,uint256)": "39509351",
        "mint(address,uint256)": "40c10f19",
        "name()": "06fdde03",
        "owner()": "8da5cb5b",
        "renounceOwnership()": "715018a6",
        "reserveToken()": "f4325d67",
        "sell(uint256)": "e4849b32",
        "symbol()": "95d89b41",
        "totalSupply()": "18160ddd",
        "transfer(address,uint256)": "a9059cbb",
        "transferFrom(address,address,uint256)": "23b872dd",
        "transferOwnership(address)": "f2fde38b"
    },
    "gasEstimates": {
        "creation": {
            "codeDepositCost": "992400",
            "executionCost": "infinite",
            "totalCost": "infinite"
        },
        "external": {
            "allowance(address,address)": "infinite",
            "approve(address,uint256)": "24665",
            "balanceOf(address)": "2673",
            "buy(uint256)": "infinite",
            "calculatePurchaseReturn(uint256,uint256)": "infinite",
            "calculateSalesReturn(uint256,uint256)": "infinite",
            "decimals()": "244",
            "decreaseAllowance(address,uint256)": "26978",
            "exponent(uint256)": "495",
            "getBuyPrice(uint256)": "infinite",
            "getSellPrice(uint256)": "infinite",
            "increaseAllowance(address,uint256)": "27024",
            "mint(address,uint256)": "infinite",
            "name()": "infinite",
            "owner()": "2365",
            "renounceOwnership()": "28140",
            "reserveToken()": "infinite",
            "sell(uint256)": "infinite",
            "symbol()": "infinite",
            "totalSupply()": "2315",
            "transfer(address,uint256)": "51276",
            "transferFrom(address,address,uint256)": "infinite",
            "transferOwnership(address)": "28422"
        }
    }
}