{
  "_format": "hh-sol-artifact-1",
  "contractName": "SmartToken",
  "sourceName": "contracts/SmartToken.sol",
  "abi": [
    {
      "inputs": [
        {
          "internalType": "string",
          "name": "_name",
          "type": "string"
        },
        {
          "internalType": "string",
          "name": "_symbol",
          "type": "string"
        },
        {
          "internalType": "uint256",
          "name": "_maxSupply",
          "type": "uint256"
        },
        {
          "internalType": "contract IERC20",
          "name": "_token",
          "type": "address"
        }
      ],
      "stateMutability": "nonpayable",
      "type": "constructor"
    },
    {
      "anonymous": false,
      "inputs": [
        {
          "indexed": true,
          "internalType": "address",
          "name": "owner",
          "type": "address"
        },
        {
          "indexed": true,
          "internalType": "address",
          "name": "spender",
          "type": "address"
        },
        {
          "indexed": false,
          "internalType": "uint256",
          "name": "value",
          "type": "uint256"
        }
      ],
      "name": "Approval",
      "type": "event"
    },
    {
      "anonymous": false,
      "inputs": [
        {
          "indexed": true,
          "internalType": "address",
          "name": "buyer",
          "type": "address"
        },
        {
          "indexed": true,
          "internalType": "uint256",
          "name": "amount",
          "type": "uint256"
        },
        {
          "indexed": false,
          "internalType": "uint256",
          "name": "paid",
          "type": "uint256"
        }
      ],
      "name": "Buy",
      "type": "event"
    },
    {
      "anonymous": false,
      "inputs": [
        {
          "indexed": true,
          "internalType": "address",
          "name": "previousOwner",
          "type": "address"
        },
        {
          "indexed": true,
          "internalType": "address",
          "name": "newOwner",
          "type": "address"
        }
      ],
      "name": "OwnershipTransferred",
      "type": "event"
    },
    {
      "anonymous": false,
      "inputs": [
        {
          "indexed": true,
          "internalType": "address",
          "name": "seller",
          "type": "address"
        },
        {
          "indexed": true,
          "internalType": "uint256",
          "name": "amount",
          "type": "uint256"
        },
        {
          "indexed": false,
          "internalType": "uint256",
          "name": "received",
          "type": "uint256"
        }
      ],
      "name": "Sell",
      "type": "event"
    },
    {
      "anonymous": false,
      "inputs": [
        {
          "indexed": true,
          "internalType": "address",
          "name": "from",
          "type": "address"
        },
        {
          "indexed": true,
          "internalType": "address",
          "name": "to",
          "type": "address"
        },
        {
          "indexed": false,
          "internalType": "uint256",
          "name": "value",
          "type": "uint256"
        }
      ],
      "name": "Transfer",
      "type": "event"
    },
    {
      "inputs": [
        {
          "internalType": "address",
          "name": "owner",
          "type": "address"
        },
        {
          "internalType": "address",
          "name": "spender",
          "type": "address"
        }
      ],
      "name": "allowance",
      "outputs": [
        {
          "internalType": "uint256",
          "name": "",
          "type": "uint256"
        }
      ],
      "stateMutability": "view",
      "type": "function"
    },
    {
      "inputs": [
        {
          "internalType": "address",
          "name": "spender",
          "type": "address"
        },
        {
          "internalType": "uint256",
          "name": "amount",
          "type": "uint256"
        }
      ],
      "name": "approve",
      "outputs": [
        {
          "internalType": "bool",
          "name": "",
          "type": "bool"
        }
      ],
      "stateMutability": "nonpayable",
      "type": "function"
    },
    {
      "inputs": [
        {
          "internalType": "address",
          "name": "account",
          "type": "address"
        }
      ],
      "name": "balanceOf",
      "outputs": [
        {
          "internalType": "uint256",
          "name": "",
          "type": "uint256"
        }
      ],
      "stateMutability": "view",
      "type": "function"
    },
    {
      "inputs": [
        {
          "internalType": "uint256",
          "name": "_amount",
          "type": "uint256"
        }
      ],
      "name": "buy",
      "outputs": [],
      "stateMutability": "nonpayable",
      "type": "function"
    },
    {
      "inputs": [
        {
          "internalType": "uint256",
          "name": "_tokenSupply",
          "type": "uint256"
        },
        {
          "internalType": "uint256",
          "name": "_purchaseAmount",
          "type": "uint256"
        }
      ],
      "name": "calculatePurchaseReturn",
      "outputs": [
        {
          "internalType": "uint256",
          "name": "",
          "type": "uint256"
        }
      ],
      "stateMutability": "view",
      "type": "function"
    },
    {
      "inputs": [
        {
          "internalType": "uint256",
          "name": "_tokenSupply",
          "type": "uint256"
        },
        {
          "internalType": "uint256",
          "name": "_sellAmount",
          "type": "uint256"
        }
      ],
      "name": "calculateSalesReturn",
      "outputs": [
        {
          "internalType": "uint256",
          "name": "",
          "type": "uint256"
        }
      ],
      "stateMutability": "view",
      "type": "function"
    },
    {
      "inputs": [],
      "name": "cap",
      "outputs": [
        {
          "internalType": "uint256",
          "name": "",
          "type": "uint256"
        }
      ],
      "stateMutability": "view",
      "type": "function"
    },
    {
      "inputs": [],
      "name": "decimals",
      "outputs": [
        {
          "internalType": "uint8",
          "name": "",
          "type": "uint8"
        }
      ],
      "stateMutability": "view",
      "type": "function"
    },
    {
      "inputs": [
        {
          "internalType": "address",
          "name": "spender",
          "type": "address"
        },
        {
          "internalType": "uint256",
          "name": "subtractedValue",
          "type": "uint256"
        }
      ],
      "name": "decreaseAllowance",
      "outputs": [
        {
          "internalType": "bool",
          "name": "",
          "type": "bool"
        }
      ],
      "stateMutability": "nonpayable",
      "type": "function"
    },
    {
      "inputs": [
        {
          "internalType": "uint256",
          "name": "_x",
          "type": "uint256"
        }
      ],
      "name": "exponent",
      "outputs": [
        {
          "internalType": "uint256",
          "name": "",
          "type": "uint256"
        }
      ],
      "stateMutability": "view",
      "type": "function"
    },
    {
      "inputs": [
        {
          "internalType": "uint256",
          "name": "_amount",
          "type": "uint256"
        }
      ],
      "name": "getBuyPrice",
      "outputs": [
        {
          "internalType": "uint256",
          "name": "",
          "type": "uint256"
        }
      ],
      "stateMutability": "view",
      "type": "function"
    },
    {
      "inputs": [
        {
          "internalType": "uint256",
          "name": "_amount",
          "type": "uint256"
        }
      ],
      "name": "getSellPrice",
      "outputs": [
        {
          "internalType": "uint256",
          "name": "",
          "type": "uint256"
        }
      ],
      "stateMutability": "view",
      "type": "function"
    },
    {
      "inputs": [
        {
          "internalType": "address",
          "name": "spender",
          "type": "address"
        },
        {
          "internalType": "uint256",
          "name": "addedValue",
          "type": "uint256"
        }
      ],
      "name": "increaseAllowance",
      "outputs": [
        {
          "internalType": "bool",
          "name": "",
          "type": "bool"
        }
      ],
      "stateMutability": "nonpayable",
      "type": "function"
    },
    {
      "inputs": [
        {
          "internalType": "address",
          "name": "_account",
          "type": "address"
        },
        {
          "internalType": "uint256",
          "name": "_amount",
          "type": "uint256"
        }
      ],
      "name": "mint",
      "outputs": [],
      "stateMutability": "nonpayable",
      "type": "function"
    },
    {
      "inputs": [],
      "name": "name",
      "outputs": [
        {
          "internalType": "string",
          "name": "",
          "type": "string"
        }
      ],
      "stateMutability": "view",
      "type": "function"
    },
    {
      "inputs": [],
      "name": "owner",
      "outputs": [
        {
          "internalType": "address",
          "name": "",
          "type": "address"
        }
      ],
      "stateMutability": "view",
      "type": "function"
    },
    {
      "inputs": [],
      "name": "renounceOwnership",
      "outputs": [],
      "stateMutability": "nonpayable",
      "type": "function"
    },
    {
      "inputs": [],
      "name": "reserveToken",
      "outputs": [
        {
          "internalType": "contract IERC20",
          "name": "",
          "type": "address"
        }
      ],
      "stateMutability": "view",
      "type": "function"
    },
    {
      "inputs": [
        {
          "internalType": "uint256",
          "name": "_amount",
          "type": "uint256"
        }
      ],
      "name": "sell",
      "outputs": [],
      "stateMutability": "nonpayable",
      "type": "function"
    },
    {
      "inputs": [],
      "name": "symbol",
      "outputs": [
        {
          "internalType": "string",
          "name": "",
          "type": "string"
        }
      ],
      "stateMutability": "view",
      "type": "function"
    },
    {
      "inputs": [],
      "name": "totalSupply",
      "outputs": [
        {
          "internalType": "uint256",
          "name": "",
          "type": "uint256"
        }
      ],
      "stateMutability": "view",
      "type": "function"
    },
    {
      "inputs": [
        {
          "internalType": "address",
          "name": "recipient",
          "type": "address"
        },
        {
          "internalType": "uint256",
          "name": "amount",
          "type": "uint256"
        }
      ],
      "name": "transfer",
      "outputs": [
        {
          "internalType": "bool",
          "name": "",
          "type": "bool"
        }
      ],
      "stateMutability": "nonpayable",
      "type": "function"
    },
    {
      "inputs": [
        {
          "internalType": "address",
          "name": "sender",
          "type": "address"
        },
        {
          "internalType": "address",
          "name": "recipient",
          "type": "address"
        },
        {
          "internalType": "uint256",
          "name": "amount",
          "type": "uint256"
        }
      ],
      "name": "transferFrom",
      "outputs": [
        {
          "internalType": "bool",
          "name": "",
          "type": "bool"
        }
      ],
      "stateMutability": "nonpayable",
      "type": "function"
    },
    {
      "inputs": [
        {
          "internalType": "address",
          "name": "newOwner",
          "type": "address"
        }
      ],
      "name": "transferOwnership",
      "outputs": [],
      "stateMutability": "nonpayable",
      "type": "function"
    }
  ],
  "bytecode": "0x60c06040523480156200001157600080fd5b5060405162002f6b38038062002f6b83398181016040528101906200003791906200033c565b818484816003908051906020019062000052929190620001ec565b5080600490805190602001906200006b929190620001ec565b50505060008111620000b4576040517f08c379a0000000000000000000000000000000000000000000000000000000008152600401620000ab9062000401565b60405180910390fd5b806080818152505050620000dd620000d16200011e60201b60201c565b6200012660201b60201c565b8073ffffffffffffffffffffffffffffffffffffffff1660a08173ffffffffffffffffffffffffffffffffffffffff1660601b815250505050505062000653565b600033905090565b6000600560009054906101000a900473ffffffffffffffffffffffffffffffffffffffff16905081600560006101000a81548173ffffffffffffffffffffffffffffffffffffffff021916908373ffffffffffffffffffffffffffffffffffffffff1602179055508173ffffffffffffffffffffffffffffffffffffffff168173ffffffffffffffffffffffffffffffffffffffff167f8be0079c531659141344cd1fd0a4f28419497f9722a3daafe3b4186f6b6457e060405160405180910390a35050565b828054620001fa906200051b565b90600052602060002090601f0160209004810192826200021e57600085556200026a565b82601f106200023957805160ff19168380011785556200026a565b828001600101855582156200026a579182015b82811115620002695782518255916020019190600101906200024c565b5b5090506200027991906200027d565b5090565b5b80821115620002985760008160009055506001016200027e565b5090565b6000620002b3620002ad846200044c565b62000423565b905082815260208101848484011115620002cc57600080fd5b620002d9848285620004e5565b509392505050565b600081519050620002f2816200061f565b92915050565b600082601f8301126200030a57600080fd5b81516200031c8482602086016200029c565b91505092915050565b600081519050620003368162000639565b92915050565b600080600080608085870312156200035357600080fd5b600085015167ffffffffffffffff8111156200036e57600080fd5b6200037c87828801620002f8565b945050602085015167ffffffffffffffff8111156200039a57600080fd5b620003a887828801620002f8565b9350506040620003bb8782880162000325565b9250506060620003ce87828801620002e1565b91505092959194509250565b6000620003e960158362000482565b9150620003f682620005f6565b602082019050919050565b600060208201905081810360008301526200041c81620003da565b9050919050565b60006200042f62000442565b90506200043d828262000551565b919050565b6000604051905090565b600067ffffffffffffffff8211156200046a5762000469620005b6565b5b6200047582620005e5565b9050602081019050919050565b600082825260208201905092915050565b6000620004a082620004bb565b9050919050565b6000620004b48262000493565b9050919050565b600073ffffffffffffffffffffffffffffffffffffffff82169050919050565b6000819050919050565b60005b8381101562000505578082015181840152602081019050620004e8565b8381111562000515576000848401525b50505050565b600060028204905060018216806200053457607f821691505b602082108114156200054b576200054a62000587565b5b50919050565b6200055c82620005e5565b810181811067ffffffffffffffff821117156200057e576200057d620005b6565b5b80604052505050565b7f4e487b7100000000000000000000000000000000000000000000000000000000600052602260045260246000fd5b7f4e487b7100000000000000000000000000000000000000000000000000000000600052604160045260246000fd5b6000601f19601f8301169050919050565b7f45524332304361707065643a2063617020697320300000000000000000000000600082015250565b6200062a81620004a7565b81146200063657600080fd5b50565b6200064481620004db565b81146200065057600080fd5b50565b60805160a05160601c6128da6200069160003960008181610be501528181610cd101528181610ebf01526110b80152600061073001526128da6000f3fe608060405234801561001057600080fd5b50600436106101585760003560e01c8063715018a6116100c3578063ba730e531161007c578063ba730e5314610417578063d96a094a14610447578063dd62ed3e14610463578063e4849b3214610493578063f2fde38b146104af578063f4325d67146104cb57610158565b8063715018a6146103415780638da5cb5b1461034b57806395d89b4114610369578063a457c2d714610387578063a9059cbb146103b7578063ace4e824146103e757610158565b806323b872dd1161011557806323b872dd14610259578063313ce56714610289578063355274ea146102a757806339509351146102c557806340c10f19146102f557806370a082311461031157610158565b806306fdde031461015d57806308d4db141461017b578063095ea7b3146101ab5780630e24a12a146101db5780630f80fc581461020b57806318160ddd1461023b575b600080fd5b6101656104e9565b6040516101729190611f28565b60405180910390f35b61019560048036038101906101909190611b0c565b61057b565b6040516101a2919061214a565b60405180910390f35b6101c560048036038101906101c09190611aa7565b61059a565b6040516101d29190611ef2565b60405180910390f35b6101f560048036038101906101f09190611b5e565b6105b8565b604051610202919061214a565b60405180910390f35b61022560048036038101906102209190611b0c565b61060c565b604051610232919061214a565b60405180910390f35b610243610621565b604051610250919061214a565b60405180910390f35b610273600480360381019061026e9190611a58565b61062b565b6040516102809190611ef2565b60405180910390f35b610291610723565b60405161029e9190612165565b60405180910390f35b6102af61072c565b6040516102bc919061214a565b60405180910390f35b6102df60048036038101906102da9190611aa7565b610754565b6040516102ec9190611ef2565b60405180910390f35b61030f600480360381019061030a9190611aa7565b610800565b005b61032b600480360381019061032691906119f3565b61088a565b604051610338919061214a565b60405180910390f35b6103496108d2565b005b61035361095a565b6040516103609190611e4e565b60405180910390f35b610371610984565b60405161037e9190611f28565b60405180910390f35b6103a1600480360381019061039c9190611aa7565b610a16565b6040516103ae9190611ef2565b60405180910390f35b6103d160048036038101906103cc9190611aa7565b610b01565b6040516103de9190611ef2565b60405180910390f35b61040160048036038101906103fc9190611b5e565b610b1f565b60405161040e919061214a565b60405180910390f35b610431600480360381019061042c9190611b0c565b610b73565b60405161043e919061214a565b60405180910390f35b610461600480360381019061045c9190611b0c565b610bd5565b005b61047d60048036038101906104789190611a1c565b610ddc565b60405161048a919061214a565b60405180910390f35b6104ad60048036038101906104a89190611b0c565b610e63565b005b6104c960048036038101906104c491906119f3565b610fbe565b005b6104d36110b6565b6040516104e09190611f0d565b60405180910390f35b6060600380546104f89061235d565b80601f01602080910402602001604051908101604052809291908181526020018280546105249061235d565b80156105715780601f1061054657610100808354040283529160200191610571565b820191906000526020600020905b81548152906001019060200180831161055457829003601f168201915b5050505050905090565b600080610586610621565b90506105928184610b1f565b915050919050565b60006105ae6105a76110da565b84846110e2565b6001905092915050565b60008060026105c68561060c565b6105d091906121f2565b9050600060026105ea85876105e5919061227d565b61060c565b6105f491906121f2565b90508082610602919061227d565b9250505092915050565b6000818261061a9190612223565b9050919050565b6000600254905090565b60006106388484846112ad565b6000600160008673ffffffffffffffffffffffffffffffffffffffff1673ffffffffffffffffffffffffffffffffffffffff16815260200190815260200160002060006106836110da565b73ffffffffffffffffffffffffffffffffffffffff1673ffffffffffffffffffffffffffffffffffffffff16815260200190815260200160002054905082811015610703576040517f08c379a00000000000000000000000000000000000000000000000000000000081526004016106fa9061202a565b60405180910390fd5b6107178561070f6110da565b8584036110e2565b60019150509392505050565b60006012905090565b60007f0000000000000000000000000000000000000000000000000000000000000000905090565b60006107f66107616110da565b84846001600061076f6110da565b73ffffffffffffffffffffffffffffffffffffffff1673ffffffffffffffffffffffffffffffffffffffff16815260200190815260200160002060008873ffffffffffffffffffffffffffffffffffffffff1673ffffffffffffffffffffffffffffffffffffffff168152602001908152602001600020546107f1919061219c565b6110e2565b6001905092915050565b6108086110da565b73ffffffffffffffffffffffffffffffffffffffff1661082661095a565b73ffffffffffffffffffffffffffffffffffffffff161461087c576040517f08c379a00000000000000000000000000000000000000000000000000000000081526004016108739061204a565b60405180910390fd5b610886828261152e565b5050565b60008060008373ffffffffffffffffffffffffffffffffffffffff1673ffffffffffffffffffffffffffffffffffffffff168152602001908152602001600020549050919050565b6108da6110da565b73ffffffffffffffffffffffffffffffffffffffff166108f861095a565b73ffffffffffffffffffffffffffffffffffffffff161461094e576040517f08c379a00000000000000000000000000000000000000000000000000000000081526004016109459061204a565b60405180910390fd5b6109586000611598565b565b6000600560009054906101000a900473ffffffffffffffffffffffffffffffffffffffff16905090565b6060600480546109939061235d565b80601f01602080910402602001604051908101604052809291908181526020018280546109bf9061235d565b8015610a0c5780601f106109e157610100808354040283529160200191610a0c565b820191906000526020600020905b8154815290600101906020018083116109ef57829003601f168201915b5050505050905090565b60008060016000610a256110da565b73ffffffffffffffffffffffffffffffffffffffff1673ffffffffffffffffffffffffffffffffffffffff16815260200190815260200160002060008573ffffffffffffffffffffffffffffffffffffffff1673ffffffffffffffffffffffffffffffffffffffff16815260200190815260200160002054905082811015610ae2576040517f08c379a0000000000000000000000000000000000000000000000000000000008152600401610ad99061210a565b60405180910390fd5b610af6610aed6110da565b858584036110e2565b600191505092915050565b6000610b15610b0e6110da565b84846112ad565b6001905092915050565b6000806002610b388486610b33919061219c565b61060c565b610b4291906121f2565b905060006002610b518661060c565b610b5b91906121f2565b90508082610b69919061227d565b9250505092915050565b600080610b7e610621565b905082811015610bc3576040517f08c379a0000000000000000000000000000000000000000000000000000000008152600401610bba9061200a565b60405180910390fd5b610bcd81846105b8565b915050919050565b6000610be08261057b565b9050807f000000000000000000000000000000000000000000000000000000000000000073ffffffffffffffffffffffffffffffffffffffff1663dd62ed3e33306040518363ffffffff1660e01b8152600401610c3e929190611e69565b60206040518083038186803b158015610c5657600080fd5b505afa158015610c6a573d6000803e3d6000fd5b505050506040513d601f19601f82011682018060405250810190610c8e9190611b35565b1015610ccf576040517f08c379a0000000000000000000000000000000000000000000000000000000008152600401610cc690611fca565b60405180910390fd5b7f000000000000000000000000000000000000000000000000000000000000000073ffffffffffffffffffffffffffffffffffffffff166323b872dd3330846040518463ffffffff1660e01b8152600401610d2c93929190611e92565b602060405180830381600087803b158015610d4657600080fd5b505af1158015610d5a573d6000803e3d6000fd5b505050506040513d601f19601f82011682018060405250810190610d7e9190611ae3565b50610d89338361152e565b813373ffffffffffffffffffffffffffffffffffffffff167f1cbc5ab135991bd2b6a4b034a04aa2aa086dac1371cb9b16b8b5e2ed6b036bed83604051610dd0919061214a565b60405180910390a35050565b6000600160008473ffffffffffffffffffffffffffffffffffffffff1673ffffffffffffffffffffffffffffffffffffffff16815260200190815260200160002060008373ffffffffffffffffffffffffffffffffffffffff1673ffffffffffffffffffffffffffffffffffffffff16815260200190815260200160002054905092915050565b60008111610ea6576040517f08c379a0000000000000000000000000000000000000000000000000000000008152600401610e9d906120ca565b60405180910390fd5b6000610eb182610b73565b9050610ebd338361165e565b7f000000000000000000000000000000000000000000000000000000000000000073ffffffffffffffffffffffffffffffffffffffff1663a9059cbb33836040518363ffffffff1660e01b8152600401610f18929190611ec9565b602060405180830381600087803b158015610f3257600080fd5b505af1158015610f46573d6000803e3d6000fd5b505050506040513d601f19601f82011682018060405250810190610f6a9190611ae3565b50813373ffffffffffffffffffffffffffffffffffffffff167fed7a144fad14804d5c249145e3e0e2b63a9eb455b76aee5bc92d711e9bba3e4a83604051610fb2919061214a565b60405180910390a35050565b610fc66110da565b73ffffffffffffffffffffffffffffffffffffffff16610fe461095a565b73ffffffffffffffffffffffffffffffffffffffff161461103a576040517f08c379a00000000000000000000000000000000000000000000000000000000081526004016110319061204a565b60405180910390fd5b600073ffffffffffffffffffffffffffffffffffffffff168173ffffffffffffffffffffffffffffffffffffffff1614156110aa576040517f08c379a00000000000000000000000000000000000000000000000000000000081526004016110a190611f8a565b60405180910390fd5b6110b381611598565b50565b7f000000000000000000000000000000000000000000000000000000000000000081565b600033905090565b600073ffffffffffffffffffffffffffffffffffffffff168373ffffffffffffffffffffffffffffffffffffffff161415611152576040517f08c379a0000000000000000000000000000000000000000000000000000000008152600401611149906120ea565b60405180910390fd5b600073ffffffffffffffffffffffffffffffffffffffff168273ffffffffffffffffffffffffffffffffffffffff1614156111c2576040517f08c379a00000000000000000000000000000000000000000000000000000000081526004016111b990611faa565b60405180910390fd5b80600160008573ffffffffffffffffffffffffffffffffffffffff1673ffffffffffffffffffffffffffffffffffffffff16815260200190815260200160002060008473ffffffffffffffffffffffffffffffffffffffff1673ffffffffffffffffffffffffffffffffffffffff168152602001908152602001600020819055508173ffffffffffffffffffffffffffffffffffffffff168373ffffffffffffffffffffffffffffffffffffffff167f8c5be1e5ebec7d5bd14f71427d1e84f3dd0314c0f7b2291e5b200ac8c7c3b925836040516112a0919061214a565b60405180910390a3505050565b600073ffffffffffffffffffffffffffffffffffffffff168373ffffffffffffffffffffffffffffffffffffffff16141561131d576040517f08c379a00000000000000000000000000000000000000000000000000000000081526004016113149061208a565b60405180910390fd5b600073ffffffffffffffffffffffffffffffffffffffff168273ffffffffffffffffffffffffffffffffffffffff16141561138d576040517f08c379a000000000000000000000000000000000000000000000000000000000815260040161138490611f4a565b60405180910390fd5b611398838383611835565b60008060008573ffffffffffffffffffffffffffffffffffffffff1673ffffffffffffffffffffffffffffffffffffffff1681526020019081526020016000205490508181101561141e576040517f08c379a000000000000000000000000000000000000000000000000000000000815260040161141590611fea565b60405180910390fd5b8181036000808673ffffffffffffffffffffffffffffffffffffffff1673ffffffffffffffffffffffffffffffffffffffff16815260200190815260200160002081905550816000808573ffffffffffffffffffffffffffffffffffffffff1673ffffffffffffffffffffffffffffffffffffffff16815260200190815260200160002060008282546114b1919061219c565b925050819055508273ffffffffffffffffffffffffffffffffffffffff168473ffffffffffffffffffffffffffffffffffffffff167fddf252ad1be2c89b69c2b068fc378daa952ba7f163c4a11628f55a4df523b3ef84604051611515919061214a565b60405180910390a361152884848461183a565b50505050565b61153661072c565b8161153f610621565b611549919061219c565b111561158a576040517f08c379a0000000000000000000000000000000000000000000000000000000008152600401611581906120aa565b60405180910390fd5b611594828261183f565b5050565b6000600560009054906101000a900473ffffffffffffffffffffffffffffffffffffffff16905081600560006101000a81548173ffffffffffffffffffffffffffffffffffffffff021916908373ffffffffffffffffffffffffffffffffffffffff1602179055508173ffffffffffffffffffffffffffffffffffffffff168173ffffffffffffffffffffffffffffffffffffffff167f8be0079c531659141344cd1fd0a4f28419497f9722a3daafe3b4186f6b6457e060405160405180910390a35050565b600073ffffffffffffffffffffffffffffffffffffffff168273ffffffffffffffffffffffffffffffffffffffff1614156116ce576040517f08c379a00000000000000000000000000000000000000000000000000000000081526004016116c59061206a565b60405180910390fd5b6116da82600083611835565b60008060008473ffffffffffffffffffffffffffffffffffffffff1673ffffffffffffffffffffffffffffffffffffffff16815260200190815260200160002054905081811015611760576040517f08c379a000000000000000000000000000000000000000000000000000000000815260040161175790611f6a565b60405180910390fd5b8181036000808573ffffffffffffffffffffffffffffffffffffffff1673ffffffffffffffffffffffffffffffffffffffff1681526020019081526020016000208190555081600260008282546117b7919061227d565b92505081905550600073ffffffffffffffffffffffffffffffffffffffff168373ffffffffffffffffffffffffffffffffffffffff167fddf252ad1be2c89b69c2b068fc378daa952ba7f163c4a11628f55a4df523b3ef8460405161181c919061214a565b60405180910390a36118308360008461183a565b505050565b505050565b505050565b600073ffffffffffffffffffffffffffffffffffffffff168273ffffffffffffffffffffffffffffffffffffffff1614156118af576040517f08c379a00000000000000000000000000000000000000000000000000000000081526004016118a69061212a565b60405180910390fd5b6118bb60008383611835565b80600260008282546118cd919061219c565b92505081905550806000808473ffffffffffffffffffffffffffffffffffffffff1673ffffffffffffffffffffffffffffffffffffffff1681526020019081526020016000206000828254611922919061219c565b925050819055508173ffffffffffffffffffffffffffffffffffffffff16600073ffffffffffffffffffffffffffffffffffffffff167fddf252ad1be2c89b69c2b068fc378daa952ba7f163c4a11628f55a4df523b3ef83604051611987919061214a565b60405180910390a361199b6000838361183a565b5050565b6000813590506119ae8161285f565b92915050565b6000815190506119c381612876565b92915050565b6000813590506119d88161288d565b92915050565b6000815190506119ed8161288d565b92915050565b600060208284031215611a0557600080fd5b6000611a138482850161199f565b91505092915050565b60008060408385031215611a2f57600080fd5b6000611a3d8582860161199f565b9250506020611a4e8582860161199f565b9150509250929050565b600080600060608486031215611a6d57600080fd5b6000611a7b8682870161199f565b9350506020611a8c8682870161199f565b9250506040611a9d868287016119c9565b9150509250925092565b60008060408385031215611aba57600080fd5b6000611ac88582860161199f565b9250506020611ad9858286016119c9565b9150509250929050565b600060208284031215611af557600080fd5b6000611b03848285016119b4565b91505092915050565b600060208284031215611b1e57600080fd5b6000611b2c848285016119c9565b91505092915050565b600060208284031215611b4757600080fd5b6000611b55848285016119de565b91505092915050565b60008060408385031215611b7157600080fd5b6000611b7f858286016119c9565b9250506020611b90858286016119c9565b9150509250929050565b611ba3816122b1565b82525050565b611bb2816122c3565b82525050565b611bc181612306565b82525050565b6000611bd282612180565b611bdc818561218b565b9350611bec81856020860161232a565b611bf58161241c565b840191505092915050565b6000611c0d60238361218b565b9150611c188261242d565b604082019050919050565b6000611c3060228361218b565b9150611c3b8261247c565b604082019050919050565b6000611c5360268361218b565b9150611c5e826124cb565b604082019050919050565b6000611c7660228361218b565b9150611c818261251a565b604082019050919050565b6000611c99602d8361218b565b9150611ca482612569565b604082019050919050565b6000611cbc60268361218b565b9150611cc7826125b8565b604082019050919050565b6000611cdf600c8361218b565b9150611cea82612607565b602082019050919050565b6000611d0260288361218b565b9150611d0d82612630565b604082019050919050565b6000611d2560208361218b565b9150611d308261267f565b602082019050919050565b6000611d4860218361218b565b9150611d53826126a8565b604082019050919050565b6000611d6b60258361218b565b9150611d76826126f7565b604082019050919050565b6000611d8e60198361218b565b9150611d9982612746565b602082019050919050565b6000611db1601f8361218b565b9150611dbc8261276f565b602082019050919050565b6000611dd460248361218b565b9150611ddf82612798565b604082019050919050565b6000611df760258361218b565b9150611e02826127e7565b604082019050919050565b6000611e1a601f8361218b565b9150611e2582612836565b602082019050919050565b611e39816122ef565b82525050565b611e48816122f9565b82525050565b6000602082019050611e636000830184611b9a565b92915050565b6000604082019050611e7e6000830185611b9a565b611e8b6020830184611b9a565b9392505050565b6000606082019050611ea76000830186611b9a565b611eb46020830185611b9a565b611ec16040830184611e30565b949350505050565b6000604082019050611ede6000830185611b9a565b611eeb6020830184611e30565b9392505050565b6000602082019050611f076000830184611ba9565b92915050565b6000602082019050611f226000830184611bb8565b92915050565b60006020820190508181036000830152611f428184611bc7565b905092915050565b60006020820190508181036000830152611f6381611c00565b9050919050565b60006020820190508181036000830152611f8381611c23565b9050919050565b60006020820190508181036000830152611fa381611c46565b9050919050565b60006020820190508181036000830152611fc381611c69565b9050919050565b60006020820190508181036000830152611fe381611c8c565b9050919050565b6000602082019050818103600083015261200381611caf565b9050919050565b6000602082019050818103600083015261202381611cd2565b9050919050565b6000602082019050818103600083015261204381611cf5565b9050919050565b6000602082019050818103600083015261206381611d18565b9050919050565b6000602082019050818103600083015261208381611d3b565b9050919050565b600060208201905081810360008301526120a381611d5e565b9050919050565b600060208201905081810360008301526120c381611d81565b9050919050565b600060208201905081810360008301526120e381611da4565b9050919050565b6000602082019050818103600083015261210381611dc7565b9050919050565b6000602082019050818103600083015261212381611dea565b9050919050565b6000602082019050818103600083015261214381611e0d565b9050919050565b600060208201905061215f6000830184611e30565b92915050565b600060208201905061217a6000830184611e3f565b92915050565b600081519050919050565b600082825260208201905092915050565b60006121a7826122ef565b91506121b2836122ef565b9250827fffffffffffffffffffffffffffffffffffffffffffffffffffffffffffffffff038211156121e7576121e661238f565b5b828201905092915050565b60006121fd826122ef565b9150612208836122ef565b925082612218576122176123be565b5b828204905092915050565b600061222e826122ef565b9150612239836122ef565b9250817fffffffffffffffffffffffffffffffffffffffffffffffffffffffffffffffff04831182151516156122725761227161238f565b5b828202905092915050565b6000612288826122ef565b9150612293836122ef565b9250828210156122a6576122a561238f565b5b828203905092915050565b60006122bc826122cf565b9050919050565b60008115159050919050565b600073ffffffffffffffffffffffffffffffffffffffff82169050919050565b6000819050919050565b600060ff82169050919050565b600061231182612318565b9050919050565b6000612323826122cf565b9050919050565b60005b8381101561234857808201518184015260208101905061232d565b83811115612357576000848401525b50505050565b6000600282049050600182168061237557607f821691505b60208210811415612389576123886123ed565b5b50919050565b7f4e487b7100000000000000000000000000000000000000000000000000000000600052601160045260246000fd5b7f4e487b7100000000000000000000000000000000000000000000000000000000600052601260045260246000fd5b7f4e487b7100000000000000000000000000000000000000000000000000000000600052602260045260246000fd5b6000601f19601f8301169050919050565b7f45524332303a207472616e7366657220746f20746865207a65726f206164647260008201527f6573730000000000000000000000000000000000000000000000000000000000602082015250565b7f45524332303a206275726e20616d6f756e7420657863656564732062616c616e60008201527f6365000000000000000000000000000000000000000000000000000000000000602082015250565b7f4f776e61626c653a206e6577206f776e657220697320746865207a65726f206160008201527f6464726573730000000000000000000000000000000000000000000000000000602082015250565b7f45524332303a20617070726f766520746f20746865207a65726f20616464726560008201527f7373000000000000000000000000000000000000000000000000000000000000602082015250565b7f536d617274546f6b656e3a207472616e7366657220616d6f756e74206578636560008201527f65647320616c6c6f77616e636500000000000000000000000000000000000000602082015250565b7f45524332303a207472616e7366657220616d6f756e742065786365656473206260008201527f616c616e63650000000000000000000000000000000000000000000000000000602082015250565b7f536d617274546f6b656e3a200000000000000000000000000000000000000000600082015250565b7f45524332303a207472616e7366657220616d6f756e742065786365656473206160008201527f6c6c6f77616e6365000000000000000000000000000000000000000000000000602082015250565b7f4f776e61626c653a2063616c6c6572206973206e6f7420746865206f776e6572600082015250565b7f45524332303a206275726e2066726f6d20746865207a65726f2061646472657360008201527f7300000000000000000000000000000000000000000000000000000000000000602082015250565b7f45524332303a207472616e736665722066726f6d20746865207a65726f20616460008201527f6472657373000000000000000000000000000000000000000000000000000000602082015250565b7f45524332304361707065643a2063617020657863656564656400000000000000600082015250565b7f536d617274546f6b656e3a20696e76616c69642073656c6c20616d6f756e7400600082015250565b7f45524332303a20617070726f76652066726f6d20746865207a65726f2061646460008201527f7265737300000000000000000000000000000000000000000000000000000000602082015250565b7f45524332303a2064656372656173656420616c6c6f77616e63652062656c6f7760008201527f207a65726f000000000000000000000000000000000000000000000000000000602082015250565b7f45524332303a206d696e7420746f20746865207a65726f206164647265737300600082015250565b612868816122b1565b811461287357600080fd5b50565b61287f816122c3565b811461288a57600080fd5b50565b612896816122ef565b81146128a157600080fd5b5056fea2646970667358221220d44b4be1f8e51ef4c037d3991e5b3a362d23ecfca8004305bb361229f8df943c64736f6c63430008040033",
  "linkReferences": {},
  "deployedLinkReferences": {}
}