{
  "_format": "hh-sol-artifact-1",
  "contractName": "SmartToken",
  "sourceName": "contracts/SmartToken.sol",
  "abi": [
    {
      "inputs": [
        {
          "internalType": "string",
          "name": "_name",
          "type": "string"
        },
        {
          "internalType": "string",
          "name": "_symbol",
          "type": "string"
        },
        {
          "internalType": "uint256",
          "name": "_maxSupply",
          "type": "uint256"
        },
        {
          "internalType": "contract IERC20",
          "name": "_token",
          "type": "address"
        }
      ],
      "stateMutability": "nonpayable",
      "type": "constructor"
    },
    {
      "anonymous": false,
      "inputs": [
        {
          "indexed": true,
          "internalType": "address",
          "name": "owner",
          "type": "address"
        },
        {
          "indexed": true,
          "internalType": "address",
          "name": "spender",
          "type": "address"
        },
        {
          "indexed": false,
          "internalType": "uint256",
          "name": "value",
          "type": "uint256"
        }
      ],
      "name": "Approval",
      "type": "event"
    },
    {
      "anonymous": false,
      "inputs": [
        {
          "indexed": true,
          "internalType": "address",
          "name": "buyer",
          "type": "address"
        },
        {
          "indexed": true,
          "internalType": "uint256",
          "name": "amount",
          "type": "uint256"
        },
        {
          "indexed": false,
          "internalType": "uint256",
          "name": "paid",
          "type": "uint256"
        }
      ],
      "name": "Buy",
      "type": "event"
    },
    {
      "anonymous": false,
      "inputs": [
        {
          "indexed": true,
          "internalType": "address",
          "name": "previousOwner",
          "type": "address"
        },
        {
          "indexed": true,
          "internalType": "address",
          "name": "newOwner",
          "type": "address"
        }
      ],
      "name": "OwnershipTransferred",
      "type": "event"
    },
    {
      "anonymous": false,
      "inputs": [
        {
          "indexed": true,
          "internalType": "address",
          "name": "seller",
          "type": "address"
        },
        {
          "indexed": true,
          "internalType": "uint256",
          "name": "amount",
          "type": "uint256"
        },
        {
          "indexed": false,
          "internalType": "uint256",
          "name": "received",
          "type": "uint256"
        }
      ],
      "name": "Sell",
      "type": "event"
    },
    {
      "anonymous": false,
      "inputs": [
        {
          "indexed": true,
          "internalType": "address",
          "name": "from",
          "type": "address"
        },
        {
          "indexed": true,
          "internalType": "address",
          "name": "to",
          "type": "address"
        },
        {
          "indexed": false,
          "internalType": "uint256",
          "name": "value",
          "type": "uint256"
        }
      ],
      "name": "Transfer",
      "type": "event"
    },
    {
      "inputs": [
        {
          "internalType": "address",
          "name": "owner",
          "type": "address"
        },
        {
          "internalType": "address",
          "name": "spender",
          "type": "address"
        }
      ],
      "name": "allowance",
      "outputs": [
        {
          "internalType": "uint256",
          "name": "",
          "type": "uint256"
        }
      ],
      "stateMutability": "view",
      "type": "function"
    },
    {
      "inputs": [
        {
          "internalType": "address",
          "name": "spender",
          "type": "address"
        },
        {
          "internalType": "uint256",
          "name": "amount",
          "type": "uint256"
        }
      ],
      "name": "approve",
      "outputs": [
        {
          "internalType": "bool",
          "name": "",
          "type": "bool"
        }
      ],
      "stateMutability": "nonpayable",
      "type": "function"
    },
    {
      "inputs": [
        {
          "internalType": "address",
          "name": "account",
          "type": "address"
        }
      ],
      "name": "balanceOf",
      "outputs": [
        {
          "internalType": "uint256",
          "name": "",
          "type": "uint256"
        }
      ],
      "stateMutability": "view",
      "type": "function"
    },
    {
      "inputs": [
        {
          "internalType": "uint256",
          "name": "_amount",
          "type": "uint256"
        }
      ],
      "name": "buy",
      "outputs": [],
      "stateMutability": "nonpayable",
      "type": "function"
    },
    {
      "inputs": [
        {
          "internalType": "uint256",
          "name": "_tokenSupply",
          "type": "uint256"
        },
        {
          "internalType": "uint256",
          "name": "_purchaseAmount",
          "type": "uint256"
        }
      ],
      "name": "calculatePurchaseReturn",
      "outputs": [
        {
          "internalType": "uint256",
          "name": "",
          "type": "uint256"
        }
      ],
      "stateMutability": "view",
      "type": "function"
    },
    {
      "inputs": [
        {
          "internalType": "uint256",
          "name": "_tokenSupply",
          "type": "uint256"
        },
        {
          "internalType": "uint256",
          "name": "_sellAmount",
          "type": "uint256"
        }
      ],
      "name": "calculateSalesReturn",
      "outputs": [
        {
          "internalType": "uint256",
          "name": "",
          "type": "uint256"
        }
      ],
      "stateMutability": "view",
      "type": "function"
    },
    {
      "inputs": [],
      "name": "cap",
      "outputs": [
        {
          "internalType": "uint256",
          "name": "",
          "type": "uint256"
        }
      ],
      "stateMutability": "view",
      "type": "function"
    },
    {
      "inputs": [],
      "name": "decimals",
      "outputs": [
        {
          "internalType": "uint8",
          "name": "",
          "type": "uint8"
        }
      ],
      "stateMutability": "view",
      "type": "function"
    },
    {
      "inputs": [
        {
          "internalType": "address",
          "name": "spender",
          "type": "address"
        },
        {
          "internalType": "uint256",
          "name": "subtractedValue",
          "type": "uint256"
        }
      ],
      "name": "decreaseAllowance",
      "outputs": [
        {
          "internalType": "bool",
          "name": "",
          "type": "bool"
        }
      ],
      "stateMutability": "nonpayable",
      "type": "function"
    },
    {
      "inputs": [
        {
          "internalType": "uint256",
          "name": "_x",
          "type": "uint256"
        }
      ],
      "name": "exponent",
      "outputs": [
        {
          "internalType": "uint256",
          "name": "",
          "type": "uint256"
        }
      ],
      "stateMutability": "view",
      "type": "function"
    },
    {
      "inputs": [
        {
          "internalType": "uint256",
          "name": "_amount",
          "type": "uint256"
        }
      ],
      "name": "getBuyPrice",
      "outputs": [
        {
          "internalType": "uint256",
          "name": "",
          "type": "uint256"
        }
      ],
      "stateMutability": "view",
      "type": "function"
    },
    {
      "inputs": [
        {
          "internalType": "uint256",
          "name": "_amount",
          "type": "uint256"
        }
      ],
      "name": "getSellPrice",
      "outputs": [
        {
          "internalType": "uint256",
          "name": "",
          "type": "uint256"
        }
      ],
      "stateMutability": "view",
      "type": "function"
    },
    {
      "inputs": [
        {
          "internalType": "address",
          "name": "spender",
          "type": "address"
        },
        {
          "internalType": "uint256",
          "name": "addedValue",
          "type": "uint256"
        }
      ],
      "name": "increaseAllowance",
      "outputs": [
        {
          "internalType": "bool",
          "name": "",
          "type": "bool"
        }
      ],
      "stateMutability": "nonpayable",
      "type": "function"
    },
    {
      "inputs": [
        {
          "internalType": "address",
          "name": "_account",
          "type": "address"
        },
        {
          "internalType": "uint256",
          "name": "_amount",
          "type": "uint256"
        }
      ],
      "name": "mint",
      "outputs": [],
      "stateMutability": "nonpayable",
      "type": "function"
    },
    {
      "inputs": [],
      "name": "name",
      "outputs": [
        {
          "internalType": "string",
          "name": "",
          "type": "string"
        }
      ],
      "stateMutability": "view",
      "type": "function"
    },
    {
      "inputs": [],
      "name": "owner",
      "outputs": [
        {
          "internalType": "address",
          "name": "",
          "type": "address"
        }
      ],
      "stateMutability": "view",
      "type": "function"
    },
    {
      "inputs": [],
      "name": "renounceOwnership",
      "outputs": [],
      "stateMutability": "nonpayable",
      "type": "function"
    },
    {
      "inputs": [],
      "name": "reserveToken",
      "outputs": [
        {
          "internalType": "contract IERC20",
          "name": "",
          "type": "address"
        }
      ],
      "stateMutability": "view",
      "type": "function"
    },
    {
      "inputs": [
        {
          "internalType": "uint256",
          "name": "_amount",
          "type": "uint256"
        }
      ],
      "name": "sell",
      "outputs": [],
      "stateMutability": "nonpayable",
      "type": "function"
    },
    {
      "inputs": [],
      "name": "symbol",
      "outputs": [
        {
          "internalType": "string",
          "name": "",
          "type": "string"
        }
      ],
      "stateMutability": "view",
      "type": "function"
    },
    {
      "inputs": [],
      "name": "totalSupply",
      "outputs": [
        {
          "internalType": "uint256",
          "name": "",
          "type": "uint256"
        }
      ],
      "stateMutability": "view",
      "type": "function"
    },
    {
      "inputs": [
        {
          "internalType": "address",
          "name": "recipient",
          "type": "address"
        },
        {
          "internalType": "uint256",
          "name": "amount",
          "type": "uint256"
        }
      ],
      "name": "transfer",
      "outputs": [
        {
          "internalType": "bool",
          "name": "",
          "type": "bool"
        }
      ],
      "stateMutability": "nonpayable",
      "type": "function"
    },
    {
      "inputs": [
        {
          "internalType": "address",
          "name": "sender",
          "type": "address"
        },
        {
          "internalType": "address",
          "name": "recipient",
          "type": "address"
        },
        {
          "internalType": "uint256",
          "name": "amount",
          "type": "uint256"
        }
      ],
      "name": "transferFrom",
      "outputs": [
        {
          "internalType": "bool",
          "name": "",
          "type": "bool"
        }
      ],
      "stateMutability": "nonpayable",
      "type": "function"
    },
    {
      "inputs": [
        {
          "internalType": "address",
          "name": "newOwner",
          "type": "address"
        }
      ],
      "name": "transferOwnership",
      "outputs": [],
      "stateMutability": "nonpayable",
      "type": "function"
    }
  ],
  "bytecode": "0x60c06040523480156200001157600080fd5b5060405162002f9738038062002f9783398181016040528101906200003791906200033c565b818484816003908051906020019062000052929190620001ec565b5080600490805190602001906200006b929190620001ec565b50505060008111620000b4576040517f08c379a0000000000000000000000000000000000000000000000000000000008152600401620000ab9062000401565b60405180910390fd5b806080818152505050620000dd620000d16200011e60201b60201c565b6200012660201b60201c565b8073ffffffffffffffffffffffffffffffffffffffff1660a08173ffffffffffffffffffffffffffffffffffffffff1660601b815250505050505062000653565b600033905090565b6000600560009054906101000a900473ffffffffffffffffffffffffffffffffffffffff16905081600560006101000a81548173ffffffffffffffffffffffffffffffffffffffff021916908373ffffffffffffffffffffffffffffffffffffffff1602179055508173ffffffffffffffffffffffffffffffffffffffff168173ffffffffffffffffffffffffffffffffffffffff167f8be0079c531659141344cd1fd0a4f28419497f9722a3daafe3b4186f6b6457e060405160405180910390a35050565b828054620001fa906200051b565b90600052602060002090601f0160209004810192826200021e57600085556200026a565b82601f106200023957805160ff19168380011785556200026a565b828001600101855582156200026a579182015b82811115620002695782518255916020019190600101906200024c565b5b5090506200027991906200027d565b5090565b5b80821115620002985760008160009055506001016200027e565b5090565b6000620002b3620002ad846200044c565b62000423565b905082815260208101848484011115620002cc57600080fd5b620002d9848285620004e5565b509392505050565b600081519050620002f2816200061f565b92915050565b600082601f8301126200030a57600080fd5b81516200031c8482602086016200029c565b91505092915050565b600081519050620003368162000639565b92915050565b600080600080608085870312156200035357600080fd5b600085015167ffffffffffffffff8111156200036e57600080fd5b6200037c87828801620002f8565b945050602085015167ffffffffffffffff8111156200039a57600080fd5b620003a887828801620002f8565b9350506040620003bb8782880162000325565b9250506060620003ce87828801620002e1565b91505092959194509250565b6000620003e960158362000482565b9150620003f682620005f6565b602082019050919050565b600060208201905081810360008301526200041c81620003da565b9050919050565b60006200042f62000442565b90506200043d828262000551565b919050565b6000604051905090565b600067ffffffffffffffff8211156200046a5762000469620005b6565b5b6200047582620005e5565b9050602081019050919050565b600082825260208201905092915050565b6000620004a082620004bb565b9050919050565b6000620004b48262000493565b9050919050565b600073ffffffffffffffffffffffffffffffffffffffff82169050919050565b6000819050919050565b60005b8381101562000505578082015181840152602081019050620004e8565b8381111562000515576000848401525b50505050565b600060028204905060018216806200053457607f821691505b602082108114156200054b576200054a62000587565b5b50919050565b6200055c82620005e5565b810181811067ffffffffffffffff821117156200057e576200057d620005b6565b5b80604052505050565b7f4e487b7100000000000000000000000000000000000000000000000000000000600052602260045260246000fd5b7f4e487b7100000000000000000000000000000000000000000000000000000000600052604160045260246000fd5b6000601f19601f8301169050919050565b7f45524332304361707065643a2063617020697320300000000000000000000000600082015250565b6200062a81620004a7565b81146200063657600080fd5b50565b6200064481620004db565b81146200065057600080fd5b50565b60805160a05160601c6129066200069160003960008181610bfb01528181610ce701528181610eeb01526110e40152600061073001526129066000f3fe608060405234801561001057600080fd5b50600436106101585760003560e01c8063715018a6116100c3578063ba730e531161007c578063ba730e5314610417578063d96a094a14610447578063dd62ed3e14610463578063e4849b3214610493578063f2fde38b146104af578063f4325d67146104cb57610158565b8063715018a6146103415780638da5cb5b1461034b57806395d89b4114610369578063a457c2d714610387578063a9059cbb146103b7578063ace4e824146103e757610158565b806323b872dd1161011557806323b872dd14610259578063313ce56714610289578063355274ea146102a757806339509351146102c557806340c10f19146102f557806370a082311461031157610158565b806306fdde031461015d57806308d4db141461017b578063095ea7b3146101ab5780630e24a12a146101db5780630f80fc581461020b57806318160ddd1461023b575b600080fd5b6101656104e9565b6040516101729190611f54565b60405180910390f35b61019560048036038101906101909190611b38565b61057b565b6040516101a29190612176565b60405180910390f35b6101c560048036038101906101c09190611ad3565b61059a565b6040516101d29190611f1e565b60405180910390f35b6101f560048036038101906101f09190611b8a565b6105b8565b6040516102029190612176565b60405180910390f35b61022560048036038101906102209190611b38565b61060c565b6040516102329190612176565b60405180910390f35b610243610621565b6040516102509190612176565b60405180910390f35b610273600480360381019061026e9190611a84565b61062b565b6040516102809190611f1e565b60405180910390f35b610291610723565b60405161029e9190612191565b60405180910390f35b6102af61072c565b6040516102bc9190612176565b60405180910390f35b6102df60048036038101906102da9190611ad3565b610754565b6040516102ec9190611f1e565b60405180910390f35b61030f600480360381019061030a9190611ad3565b610800565b005b61032b60048036038101906103269190611a1f565b61088a565b6040516103389190612176565b60405180910390f35b6103496108d2565b005b61035361095a565b6040516103609190611e7a565b60405180910390f35b610371610984565b60405161037e9190611f54565b60405180910390f35b6103a1600480360381019061039c9190611ad3565b610a16565b6040516103ae9190611f1e565b60405180910390f35b6103d160048036038101906103cc9190611ad3565b610b01565b6040516103de9190611f1e565b60405180910390f35b61040160048036038101906103fc9190611b8a565b610b1f565b60405161040e9190612176565b60405180910390f35b610431600480360381019061042c9190611b38565b610b73565b60405161043e9190612176565b60405180910390f35b610461600480360381019061045c9190611b38565b610bd5565b005b61047d60048036038101906104789190611a48565b610df2565b60405161048a9190612176565b60405180910390f35b6104ad60048036038101906104a89190611b38565b610e79565b005b6104c960048036038101906104c49190611a1f565b610fea565b005b6104d36110e2565b6040516104e09190611f39565b60405180910390f35b6060600380546104f890612389565b80601f016020809104026020016040519081016040528092919081815260200182805461052490612389565b80156105715780601f1061054657610100808354040283529160200191610571565b820191906000526020600020905b81548152906001019060200180831161055457829003601f168201915b5050505050905090565b600080610586610621565b90506105928184610b1f565b915050919050565b60006105ae6105a7611106565b848461110e565b6001905092915050565b60008060026105c68561060c565b6105d0919061221e565b9050600060026105ea85876105e591906122a9565b61060c565b6105f4919061221e565b9050808261060291906122a9565b9250505092915050565b6000818261061a919061224f565b9050919050565b6000600254905090565b60006106388484846112d9565b6000600160008673ffffffffffffffffffffffffffffffffffffffff1673ffffffffffffffffffffffffffffffffffffffff1681526020019081526020016000206000610683611106565b73ffffffffffffffffffffffffffffffffffffffff1673ffffffffffffffffffffffffffffffffffffffff16815260200190815260200160002054905082811015610703576040517f08c379a00000000000000000000000000000000000000000000000000000000081526004016106fa90612056565b60405180910390fd5b6107178561070f611106565b85840361110e565b60019150509392505050565b60006012905090565b60007f0000000000000000000000000000000000000000000000000000000000000000905090565b60006107f6610761611106565b84846001600061076f611106565b73ffffffffffffffffffffffffffffffffffffffff1673ffffffffffffffffffffffffffffffffffffffff16815260200190815260200160002060008873ffffffffffffffffffffffffffffffffffffffff1673ffffffffffffffffffffffffffffffffffffffff168152602001908152602001600020546107f191906121c8565b61110e565b6001905092915050565b610808611106565b73ffffffffffffffffffffffffffffffffffffffff1661082661095a565b73ffffffffffffffffffffffffffffffffffffffff161461087c576040517f08c379a000000000000000000000000000000000000000000000000000000000815260040161087390612076565b60405180910390fd5b610886828261155a565b5050565b60008060008373ffffffffffffffffffffffffffffffffffffffff1673ffffffffffffffffffffffffffffffffffffffff168152602001908152602001600020549050919050565b6108da611106565b73ffffffffffffffffffffffffffffffffffffffff166108f861095a565b73ffffffffffffffffffffffffffffffffffffffff161461094e576040517f08c379a000000000000000000000000000000000000000000000000000000000815260040161094590612076565b60405180910390fd5b61095860006115c4565b565b6000600560009054906101000a900473ffffffffffffffffffffffffffffffffffffffff16905090565b60606004805461099390612389565b80601f01602080910402602001604051908101604052809291908181526020018280546109bf90612389565b8015610a0c5780601f106109e157610100808354040283529160200191610a0c565b820191906000526020600020905b8154815290600101906020018083116109ef57829003601f168201915b5050505050905090565b60008060016000610a25611106565b73ffffffffffffffffffffffffffffffffffffffff1673ffffffffffffffffffffffffffffffffffffffff16815260200190815260200160002060008573ffffffffffffffffffffffffffffffffffffffff1673ffffffffffffffffffffffffffffffffffffffff16815260200190815260200160002054905082811015610ae2576040517f08c379a0000000000000000000000000000000000000000000000000000000008152600401610ad990612136565b60405180910390fd5b610af6610aed611106565b8585840361110e565b600191505092915050565b6000610b15610b0e611106565b84846112d9565b6001905092915050565b6000806002610b388486610b3391906121c8565b61060c565b610b42919061221e565b905060006002610b518661060c565b610b5b919061221e565b90508082610b6991906122a9565b9250505092915050565b600080610b7e610621565b905082811015610bc3576040517f08c379a0000000000000000000000000000000000000000000000000000000008152600401610bba90612036565b60405180910390fd5b610bcd81846105b8565b915050919050565b6000610be08261057b565b9050670de0b6b3a764000081610bf6919061224f565b9050807f000000000000000000000000000000000000000000000000000000000000000073ffffffffffffffffffffffffffffffffffffffff1663dd62ed3e33306040518363ffffffff1660e01b8152600401610c54929190611e95565b60206040518083038186803b158015610c6c57600080fd5b505afa158015610c80573d6000803e3d6000fd5b505050506040513d601f19601f82011682018060405250810190610ca49190611b61565b1015610ce5576040517f08c379a0000000000000000000000000000000000000000000000000000000008152600401610cdc90611ff6565b60405180910390fd5b7f000000000000000000000000000000000000000000000000000000000000000073ffffffffffffffffffffffffffffffffffffffff166323b872dd3330846040518463ffffffff1660e01b8152600401610d4293929190611ebe565b602060405180830381600087803b158015610d5c57600080fd5b505af1158015610d70573d6000803e3d6000fd5b505050506040513d601f19601f82011682018060405250810190610d949190611b0f565b50610d9f338361155a565b813373ffffffffffffffffffffffffffffffffffffffff167f1cbc5ab135991bd2b6a4b034a04aa2aa086dac1371cb9b16b8b5e2ed6b036bed83604051610de69190612176565b60405180910390a35050565b6000600160008473ffffffffffffffffffffffffffffffffffffffff1673ffffffffffffffffffffffffffffffffffffffff16815260200190815260200160002060008373ffffffffffffffffffffffffffffffffffffffff1673ffffffffffffffffffffffffffffffffffffffff16815260200190815260200160002054905092915050565b60008111610ebc576040517f08c379a0000000000000000000000000000000000000000000000000000000008152600401610eb3906120f6565b60405180910390fd5b6000610ec782610b73565b9050670de0b6b3a764000081610edd919061224f565b9050610ee9338361168a565b7f000000000000000000000000000000000000000000000000000000000000000073ffffffffffffffffffffffffffffffffffffffff1663a9059cbb33836040518363ffffffff1660e01b8152600401610f44929190611ef5565b602060405180830381600087803b158015610f5e57600080fd5b505af1158015610f72573d6000803e3d6000fd5b505050506040513d601f19601f82011682018060405250810190610f969190611b0f565b50813373ffffffffffffffffffffffffffffffffffffffff167fed7a144fad14804d5c249145e3e0e2b63a9eb455b76aee5bc92d711e9bba3e4a83604051610fde9190612176565b60405180910390a35050565b610ff2611106565b73ffffffffffffffffffffffffffffffffffffffff1661101061095a565b73ffffffffffffffffffffffffffffffffffffffff1614611066576040517f08c379a000000000000000000000000000000000000000000000000000000000815260040161105d90612076565b60405180910390fd5b600073ffffffffffffffffffffffffffffffffffffffff168173ffffffffffffffffffffffffffffffffffffffff1614156110d6576040517f08c379a00000000000000000000000000000000000000000000000000000000081526004016110cd90611fb6565b60405180910390fd5b6110df816115c4565b50565b7f000000000000000000000000000000000000000000000000000000000000000081565b600033905090565b600073ffffffffffffffffffffffffffffffffffffffff168373ffffffffffffffffffffffffffffffffffffffff16141561117e576040517f08c379a000000000000000000000000000000000000000000000000000000000815260040161117590612116565b60405180910390fd5b600073ffffffffffffffffffffffffffffffffffffffff168273ffffffffffffffffffffffffffffffffffffffff1614156111ee576040517f08c379a00000000000000000000000000000000000000000000000000000000081526004016111e590611fd6565b60405180910390fd5b80600160008573ffffffffffffffffffffffffffffffffffffffff1673ffffffffffffffffffffffffffffffffffffffff16815260200190815260200160002060008473ffffffffffffffffffffffffffffffffffffffff1673ffffffffffffffffffffffffffffffffffffffff168152602001908152602001600020819055508173ffffffffffffffffffffffffffffffffffffffff168373ffffffffffffffffffffffffffffffffffffffff167f8c5be1e5ebec7d5bd14f71427d1e84f3dd0314c0f7b2291e5b200ac8c7c3b925836040516112cc9190612176565b60405180910390a3505050565b600073ffffffffffffffffffffffffffffffffffffffff168373ffffffffffffffffffffffffffffffffffffffff161415611349576040517f08c379a0000000000000000000000000000000000000000000000000000000008152600401611340906120b6565b60405180910390fd5b600073ffffffffffffffffffffffffffffffffffffffff168273ffffffffffffffffffffffffffffffffffffffff1614156113b9576040517f08c379a00000000000000000000000000000000000000000000000000000000081526004016113b090611f76565b60405180910390fd5b6113c4838383611861565b60008060008573ffffffffffffffffffffffffffffffffffffffff1673ffffffffffffffffffffffffffffffffffffffff1681526020019081526020016000205490508181101561144a576040517f08c379a000000000000000000000000000000000000000000000000000000000815260040161144190612016565b60405180910390fd5b8181036000808673ffffffffffffffffffffffffffffffffffffffff1673ffffffffffffffffffffffffffffffffffffffff16815260200190815260200160002081905550816000808573ffffffffffffffffffffffffffffffffffffffff1673ffffffffffffffffffffffffffffffffffffffff16815260200190815260200160002060008282546114dd91906121c8565b925050819055508273ffffffffffffffffffffffffffffffffffffffff168473ffffffffffffffffffffffffffffffffffffffff167fddf252ad1be2c89b69c2b068fc378daa952ba7f163c4a11628f55a4df523b3ef846040516115419190612176565b60405180910390a3611554848484611866565b50505050565b61156261072c565b8161156b610621565b61157591906121c8565b11156115b6576040517f08c379a00000000000000000000000000000000000000000000000000000000081526004016115ad906120d6565b60405180910390fd5b6115c0828261186b565b5050565b6000600560009054906101000a900473ffffffffffffffffffffffffffffffffffffffff16905081600560006101000a81548173ffffffffffffffffffffffffffffffffffffffff021916908373ffffffffffffffffffffffffffffffffffffffff1602179055508173ffffffffffffffffffffffffffffffffffffffff168173ffffffffffffffffffffffffffffffffffffffff167f8be0079c531659141344cd1fd0a4f28419497f9722a3daafe3b4186f6b6457e060405160405180910390a35050565b600073ffffffffffffffffffffffffffffffffffffffff168273ffffffffffffffffffffffffffffffffffffffff1614156116fa576040517f08c379a00000000000000000000000000000000000000000000000000000000081526004016116f190612096565b60405180910390fd5b61170682600083611861565b60008060008473ffffffffffffffffffffffffffffffffffffffff1673ffffffffffffffffffffffffffffffffffffffff1681526020019081526020016000205490508181101561178c576040517f08c379a000000000000000000000000000000000000000000000000000000000815260040161178390611f96565b60405180910390fd5b8181036000808573ffffffffffffffffffffffffffffffffffffffff1673ffffffffffffffffffffffffffffffffffffffff1681526020019081526020016000208190555081600260008282546117e391906122a9565b92505081905550600073ffffffffffffffffffffffffffffffffffffffff168373ffffffffffffffffffffffffffffffffffffffff167fddf252ad1be2c89b69c2b068fc378daa952ba7f163c4a11628f55a4df523b3ef846040516118489190612176565b60405180910390a361185c83600084611866565b505050565b505050565b505050565b600073ffffffffffffffffffffffffffffffffffffffff168273ffffffffffffffffffffffffffffffffffffffff1614156118db576040517f08c379a00000000000000000000000000000000000000000000000000000000081526004016118d290612156565b60405180910390fd5b6118e760008383611861565b80600260008282546118f991906121c8565b92505081905550806000808473ffffffffffffffffffffffffffffffffffffffff1673ffffffffffffffffffffffffffffffffffffffff168152602001908152602001600020600082825461194e91906121c8565b925050819055508173ffffffffffffffffffffffffffffffffffffffff16600073ffffffffffffffffffffffffffffffffffffffff167fddf252ad1be2c89b69c2b068fc378daa952ba7f163c4a11628f55a4df523b3ef836040516119b39190612176565b60405180910390a36119c760008383611866565b5050565b6000813590506119da8161288b565b92915050565b6000815190506119ef816128a2565b92915050565b600081359050611a04816128b9565b92915050565b600081519050611a19816128b9565b92915050565b600060208284031215611a3157600080fd5b6000611a3f848285016119cb565b91505092915050565b60008060408385031215611a5b57600080fd5b6000611a69858286016119cb565b9250506020611a7a858286016119cb565b9150509250929050565b600080600060608486031215611a9957600080fd5b6000611aa7868287016119cb565b9350506020611ab8868287016119cb565b9250506040611ac9868287016119f5565b9150509250925092565b60008060408385031215611ae657600080fd5b6000611af4858286016119cb565b9250506020611b05858286016119f5565b9150509250929050565b600060208284031215611b2157600080fd5b6000611b2f848285016119e0565b91505092915050565b600060208284031215611b4a57600080fd5b6000611b58848285016119f5565b91505092915050565b600060208284031215611b7357600080fd5b6000611b8184828501611a0a565b91505092915050565b60008060408385031215611b9d57600080fd5b6000611bab858286016119f5565b9250506020611bbc858286016119f5565b9150509250929050565b611bcf816122dd565b82525050565b611bde816122ef565b82525050565b611bed81612332565b82525050565b6000611bfe826121ac565b611c0881856121b7565b9350611c18818560208601612356565b611c2181612448565b840191505092915050565b6000611c396023836121b7565b9150611c4482612459565b604082019050919050565b6000611c5c6022836121b7565b9150611c67826124a8565b604082019050919050565b6000611c7f6026836121b7565b9150611c8a826124f7565b604082019050919050565b6000611ca26022836121b7565b9150611cad82612546565b604082019050919050565b6000611cc5602d836121b7565b9150611cd082612595565b604082019050919050565b6000611ce86026836121b7565b9150611cf3826125e4565b604082019050919050565b6000611d0b600c836121b7565b9150611d1682612633565b602082019050919050565b6000611d2e6028836121b7565b9150611d398261265c565b604082019050919050565b6000611d516020836121b7565b9150611d5c826126ab565b602082019050919050565b6000611d746021836121b7565b9150611d7f826126d4565b604082019050919050565b6000611d976025836121b7565b9150611da282612723565b604082019050919050565b6000611dba6019836121b7565b9150611dc582612772565b602082019050919050565b6000611ddd601f836121b7565b9150611de88261279b565b602082019050919050565b6000611e006024836121b7565b9150611e0b826127c4565b604082019050919050565b6000611e236025836121b7565b9150611e2e82612813565b604082019050919050565b6000611e46601f836121b7565b9150611e5182612862565b602082019050919050565b611e658161231b565b82525050565b611e7481612325565b82525050565b6000602082019050611e8f6000830184611bc6565b92915050565b6000604082019050611eaa6000830185611bc6565b611eb76020830184611bc6565b9392505050565b6000606082019050611ed36000830186611bc6565b611ee06020830185611bc6565b611eed6040830184611e5c565b949350505050565b6000604082019050611f0a6000830185611bc6565b611f176020830184611e5c565b9392505050565b6000602082019050611f336000830184611bd5565b92915050565b6000602082019050611f4e6000830184611be4565b92915050565b60006020820190508181036000830152611f6e8184611bf3565b905092915050565b60006020820190508181036000830152611f8f81611c2c565b9050919050565b60006020820190508181036000830152611faf81611c4f565b9050919050565b60006020820190508181036000830152611fcf81611c72565b9050919050565b60006020820190508181036000830152611fef81611c95565b9050919050565b6000602082019050818103600083015261200f81611cb8565b9050919050565b6000602082019050818103600083015261202f81611cdb565b9050919050565b6000602082019050818103600083015261204f81611cfe565b9050919050565b6000602082019050818103600083015261206f81611d21565b9050919050565b6000602082019050818103600083015261208f81611d44565b9050919050565b600060208201905081810360008301526120af81611d67565b9050919050565b600060208201905081810360008301526120cf81611d8a565b9050919050565b600060208201905081810360008301526120ef81611dad565b9050919050565b6000602082019050818103600083015261210f81611dd0565b9050919050565b6000602082019050818103600083015261212f81611df3565b9050919050565b6000602082019050818103600083015261214f81611e16565b9050919050565b6000602082019050818103600083015261216f81611e39565b9050919050565b600060208201905061218b6000830184611e5c565b92915050565b60006020820190506121a66000830184611e6b565b92915050565b600081519050919050565b600082825260208201905092915050565b60006121d38261231b565b91506121de8361231b565b9250827fffffffffffffffffffffffffffffffffffffffffffffffffffffffffffffffff03821115612213576122126123bb565b5b828201905092915050565b60006122298261231b565b91506122348361231b565b925082612244576122436123ea565b5b828204905092915050565b600061225a8261231b565b91506122658361231b565b9250817fffffffffffffffffffffffffffffffffffffffffffffffffffffffffffffffff048311821515161561229e5761229d6123bb565b5b828202905092915050565b60006122b48261231b565b91506122bf8361231b565b9250828210156122d2576122d16123bb565b5b828203905092915050565b60006122e8826122fb565b9050919050565b60008115159050919050565b600073ffffffffffffffffffffffffffffffffffffffff82169050919050565b6000819050919050565b600060ff82169050919050565b600061233d82612344565b9050919050565b600061234f826122fb565b9050919050565b60005b83811015612374578082015181840152602081019050612359565b83811115612383576000848401525b50505050565b600060028204905060018216806123a157607f821691505b602082108114156123b5576123b4612419565b5b50919050565b7f4e487b7100000000000000000000000000000000000000000000000000000000600052601160045260246000fd5b7f4e487b7100000000000000000000000000000000000000000000000000000000600052601260045260246000fd5b7f4e487b7100000000000000000000000000000000000000000000000000000000600052602260045260246000fd5b6000601f19601f8301169050919050565b7f45524332303a207472616e7366657220746f20746865207a65726f206164647260008201527f6573730000000000000000000000000000000000000000000000000000000000602082015250565b7f45524332303a206275726e20616d6f756e7420657863656564732062616c616e60008201527f6365000000000000000000000000000000000000000000000000000000000000602082015250565b7f4f776e61626c653a206e6577206f776e657220697320746865207a65726f206160008201527f6464726573730000000000000000000000000000000000000000000000000000602082015250565b7f45524332303a20617070726f766520746f20746865207a65726f20616464726560008201527f7373000000000000000000000000000000000000000000000000000000000000602082015250565b7f536d617274546f6b656e3a207472616e7366657220616d6f756e74206578636560008201527f65647320616c6c6f77616e636500000000000000000000000000000000000000602082015250565b7f45524332303a207472616e7366657220616d6f756e742065786365656473206260008201527f616c616e63650000000000000000000000000000000000000000000000000000602082015250565b7f536d617274546f6b656e3a200000000000000000000000000000000000000000600082015250565b7f45524332303a207472616e7366657220616d6f756e742065786365656473206160008201527f6c6c6f77616e6365000000000000000000000000000000000000000000000000602082015250565b7f4f776e61626c653a2063616c6c6572206973206e6f7420746865206f776e6572600082015250565b7f45524332303a206275726e2066726f6d20746865207a65726f2061646472657360008201527f7300000000000000000000000000000000000000000000000000000000000000602082015250565b7f45524332303a207472616e736665722066726f6d20746865207a65726f20616460008201527f6472657373000000000000000000000000000000000000000000000000000000602082015250565b7f45524332304361707065643a2063617020657863656564656400000000000000600082015250565b7f536d617274546f6b656e3a20696e76616c69642073656c6c20616d6f756e7400600082015250565b7f45524332303a20617070726f76652066726f6d20746865207a65726f2061646460008201527f7265737300000000000000000000000000000000000000000000000000000000602082015250565b7f45524332303a2064656372656173656420616c6c6f77616e63652062656c6f7760008201527f207a65726f000000000000000000000000000000000000000000000000000000602082015250565b7f45524332303a206d696e7420746f20746865207a65726f206164647265737300600082015250565b612894816122dd565b811461289f57600080fd5b50565b6128ab816122ef565b81146128b657600080fd5b50565b6128c28161231b565b81146128cd57600080fd5b5056fea26469706673582212200fd4a6768d6a03238c22dc3ac7a930eb9739517a702f6f6a1c22509ef23250af64736f6c63430008040033",
  "linkReferences": {},
  "deployedLinkReferences": {}
}