{
  "_format": "hh-sol-artifact-1",
  "contractName": "SmartToken",
  "sourceName": "contracts/SmartToken.sol",
  "abi": [
    {
      "inputs": [
        {
          "internalType": "string",
          "name": "_name",
          "type": "string"
        },
        {
          "internalType": "string",
          "name": "_symbol",
          "type": "string"
        },
        {
          "internalType": "contract IERC20",
          "name": "_token",
          "type": "address"
        }
      ],
      "stateMutability": "nonpayable",
      "type": "constructor"
    },
    {
      "anonymous": false,
      "inputs": [
        {
          "indexed": true,
          "internalType": "address",
          "name": "owner",
          "type": "address"
        },
        {
          "indexed": true,
          "internalType": "address",
          "name": "spender",
          "type": "address"
        },
        {
          "indexed": false,
          "internalType": "uint256",
          "name": "value",
          "type": "uint256"
        }
      ],
      "name": "Approval",
      "type": "event"
    },
    {
      "anonymous": false,
      "inputs": [
        {
          "indexed": true,
          "internalType": "address",
          "name": "buyer",
          "type": "address"
        },
        {
          "indexed": true,
          "internalType": "uint256",
          "name": "amount",
          "type": "uint256"
        },
        {
          "indexed": false,
          "internalType": "uint256",
          "name": "paid",
          "type": "uint256"
        }
      ],
      "name": "Buy",
      "type": "event"
    },
    {
      "anonymous": false,
      "inputs": [
        {
          "indexed": true,
          "internalType": "address",
          "name": "previousOwner",
          "type": "address"
        },
        {
          "indexed": true,
          "internalType": "address",
          "name": "newOwner",
          "type": "address"
        }
      ],
      "name": "OwnershipTransferred",
      "type": "event"
    },
    {
      "anonymous": false,
      "inputs": [
        {
          "indexed": true,
          "internalType": "address",
          "name": "seller",
          "type": "address"
        },
        {
          "indexed": true,
          "internalType": "uint256",
          "name": "amount",
          "type": "uint256"
        },
        {
          "indexed": false,
          "internalType": "uint256",
          "name": "received",
          "type": "uint256"
        }
      ],
      "name": "Sell",
      "type": "event"
    },
    {
      "anonymous": false,
      "inputs": [
        {
          "indexed": true,
          "internalType": "address",
          "name": "from",
          "type": "address"
        },
        {
          "indexed": true,
          "internalType": "address",
          "name": "to",
          "type": "address"
        },
        {
          "indexed": false,
          "internalType": "uint256",
          "name": "value",
          "type": "uint256"
        }
      ],
      "name": "Transfer",
      "type": "event"
    },
    {
      "inputs": [
        {
          "internalType": "address",
          "name": "owner",
          "type": "address"
        },
        {
          "internalType": "address",
          "name": "spender",
          "type": "address"
        }
      ],
      "name": "allowance",
      "outputs": [
        {
          "internalType": "uint256",
          "name": "",
          "type": "uint256"
        }
      ],
      "stateMutability": "view",
      "type": "function"
    },
    {
      "inputs": [
        {
          "internalType": "address",
          "name": "spender",
          "type": "address"
        },
        {
          "internalType": "uint256",
          "name": "amount",
          "type": "uint256"
        }
      ],
      "name": "approve",
      "outputs": [
        {
          "internalType": "bool",
          "name": "",
          "type": "bool"
        }
      ],
      "stateMutability": "nonpayable",
      "type": "function"
    },
    {
      "inputs": [
        {
          "internalType": "address",
          "name": "account",
          "type": "address"
        }
      ],
      "name": "balanceOf",
      "outputs": [
        {
          "internalType": "uint256",
          "name": "",
          "type": "uint256"
        }
      ],
      "stateMutability": "view",
      "type": "function"
    },
    {
      "inputs": [
        {
          "internalType": "uint256",
          "name": "_amount",
          "type": "uint256"
        }
      ],
      "name": "buy",
      "outputs": [],
      "stateMutability": "nonpayable",
      "type": "function"
    },
    {
      "inputs": [
        {
          "internalType": "uint256",
          "name": "_tokenSupply",
          "type": "uint256"
        },
        {
          "internalType": "uint256",
          "name": "_purchaseAmount",
          "type": "uint256"
        }
      ],
      "name": "calculatePurchaseReturn",
      "outputs": [
        {
          "internalType": "uint256",
          "name": "",
          "type": "uint256"
        }
      ],
      "stateMutability": "view",
      "type": "function"
    },
    {
      "inputs": [
        {
          "internalType": "uint256",
          "name": "_tokenSupply",
          "type": "uint256"
        },
        {
          "internalType": "uint256",
          "name": "_sellAmount",
          "type": "uint256"
        }
      ],
      "name": "calculateSalesReturn",
      "outputs": [
        {
          "internalType": "uint256",
          "name": "",
          "type": "uint256"
        }
      ],
      "stateMutability": "view",
      "type": "function"
    },
    {
      "inputs": [],
      "name": "decimals",
      "outputs": [
        {
          "internalType": "uint8",
          "name": "",
          "type": "uint8"
        }
      ],
      "stateMutability": "view",
      "type": "function"
    },
    {
      "inputs": [
        {
          "internalType": "address",
          "name": "spender",
          "type": "address"
        },
        {
          "internalType": "uint256",
          "name": "subtractedValue",
          "type": "uint256"
        }
      ],
      "name": "decreaseAllowance",
      "outputs": [
        {
          "internalType": "bool",
          "name": "",
          "type": "bool"
        }
      ],
      "stateMutability": "nonpayable",
      "type": "function"
    },
    {
      "inputs": [
        {
          "internalType": "uint256",
          "name": "_x",
          "type": "uint256"
        }
      ],
      "name": "exponent",
      "outputs": [
        {
          "internalType": "uint256",
          "name": "",
          "type": "uint256"
        }
      ],
      "stateMutability": "view",
      "type": "function"
    },
    {
      "inputs": [
        {
          "internalType": "uint256",
          "name": "_amount",
          "type": "uint256"
        },
        {
          "internalType": "uint256",
          "name": "_tokenSupply",
          "type": "uint256"
        }
      ],
      "name": "getBuyPrice",
      "outputs": [
        {
          "internalType": "uint256",
          "name": "",
          "type": "uint256"
        }
      ],
      "stateMutability": "view",
      "type": "function"
    },
    {
      "inputs": [
        {
          "internalType": "uint256",
          "name": "_amount",
          "type": "uint256"
        },
        {
          "internalType": "uint256",
          "name": "_tokenSupply",
          "type": "uint256"
        }
      ],
      "name": "getSellPrice",
      "outputs": [
        {
          "internalType": "uint256",
          "name": "",
          "type": "uint256"
        }
      ],
      "stateMutability": "view",
      "type": "function"
    },
    {
      "inputs": [
        {
          "internalType": "address",
          "name": "spender",
          "type": "address"
        },
        {
          "internalType": "uint256",
          "name": "addedValue",
          "type": "uint256"
        }
      ],
      "name": "increaseAllowance",
      "outputs": [
        {
          "internalType": "bool",
          "name": "",
          "type": "bool"
        }
      ],
      "stateMutability": "nonpayable",
      "type": "function"
    },
    {
      "inputs": [
        {
          "internalType": "address",
          "name": "_account",
          "type": "address"
        },
        {
          "internalType": "uint256",
          "name": "_amount",
          "type": "uint256"
        }
      ],
      "name": "mint",
      "outputs": [],
      "stateMutability": "nonpayable",
      "type": "function"
    },
    {
      "inputs": [],
      "name": "name",
      "outputs": [
        {
          "internalType": "string",
          "name": "",
          "type": "string"
        }
      ],
      "stateMutability": "view",
      "type": "function"
    },
    {
      "inputs": [],
      "name": "owner",
      "outputs": [
        {
          "internalType": "address",
          "name": "",
          "type": "address"
        }
      ],
      "stateMutability": "view",
      "type": "function"
    },
    {
      "inputs": [],
      "name": "renounceOwnership",
      "outputs": [],
      "stateMutability": "nonpayable",
      "type": "function"
    },
    {
      "inputs": [],
      "name": "reserveToken",
      "outputs": [
        {
          "internalType": "contract IERC20",
          "name": "",
          "type": "address"
        }
      ],
      "stateMutability": "view",
      "type": "function"
    },
    {
      "inputs": [
        {
          "internalType": "uint256",
          "name": "_amount",
          "type": "uint256"
        }
      ],
      "name": "sell",
      "outputs": [],
      "stateMutability": "nonpayable",
      "type": "function"
    },
    {
      "inputs": [],
      "name": "symbol",
      "outputs": [
        {
          "internalType": "string",
          "name": "",
          "type": "string"
        }
      ],
      "stateMutability": "view",
      "type": "function"
    },
    {
      "inputs": [],
      "name": "totalSupply",
      "outputs": [
        {
          "internalType": "uint256",
          "name": "",
          "type": "uint256"
        }
      ],
      "stateMutability": "view",
      "type": "function"
    },
    {
      "inputs": [
        {
          "internalType": "address",
          "name": "recipient",
          "type": "address"
        },
        {
          "internalType": "uint256",
          "name": "amount",
          "type": "uint256"
        }
      ],
      "name": "transfer",
      "outputs": [
        {
          "internalType": "bool",
          "name": "",
          "type": "bool"
        }
      ],
      "stateMutability": "nonpayable",
      "type": "function"
    },
    {
      "inputs": [
        {
          "internalType": "address",
          "name": "sender",
          "type": "address"
        },
        {
          "internalType": "address",
          "name": "recipient",
          "type": "address"
        },
        {
          "internalType": "uint256",
          "name": "amount",
          "type": "uint256"
        }
      ],
      "name": "transferFrom",
      "outputs": [
        {
          "internalType": "bool",
          "name": "",
          "type": "bool"
        }
      ],
      "stateMutability": "nonpayable",
      "type": "function"
    },
    {
      "inputs": [
        {
          "internalType": "address",
          "name": "newOwner",
          "type": "address"
        }
      ],
      "name": "transferOwnership",
      "outputs": [],
      "stateMutability": "nonpayable",
      "type": "function"
    }
  ],
  "bytecode": "0x60a06040523480156200001157600080fd5b5060405162002ce438038062002ce48339818101604052810190620000379190620002d4565b82828160039080519060200190620000519291906200019b565b5080600490805190602001906200006a9291906200019b565b5050506200008d62000081620000cd60201b60201c565b620000d560201b60201c565b8073ffffffffffffffffffffffffffffffffffffffff1660808173ffffffffffffffffffffffffffffffffffffffff1660601b815250505050506200052e565b600033905090565b6000600560009054906101000a900473ffffffffffffffffffffffffffffffffffffffff16905081600560006101000a81548173ffffffffffffffffffffffffffffffffffffffff021916908373ffffffffffffffffffffffffffffffffffffffff1602179055508173ffffffffffffffffffffffffffffffffffffffff168173ffffffffffffffffffffffffffffffffffffffff167f8be0079c531659141344cd1fd0a4f28419497f9722a3daafe3b4186f6b6457e060405160405180910390a35050565b828054620001a99062000439565b90600052602060002090601f016020900481019282620001cd576000855562000219565b82601f10620001e857805160ff191683800117855562000219565b8280016001018555821562000219579182015b8281111562000218578251825591602001919060010190620001fb565b5b5090506200022891906200022c565b5090565b5b80821115620002475760008160009055506001016200022d565b5090565b6000620002626200025c8462000385565b6200035c565b9050828152602081018484840111156200027b57600080fd5b6200028884828562000403565b509392505050565b600081519050620002a18162000514565b92915050565b600082601f830112620002b957600080fd5b8151620002cb8482602086016200024b565b91505092915050565b600080600060608486031215620002ea57600080fd5b600084015167ffffffffffffffff8111156200030557600080fd5b6200031386828701620002a7565b935050602084015167ffffffffffffffff8111156200033157600080fd5b6200033f86828701620002a7565b9250506040620003528682870162000290565b9150509250925092565b6000620003686200037b565b90506200037682826200046f565b919050565b6000604051905090565b600067ffffffffffffffff821115620003a357620003a2620004d4565b5b620003ae8262000503565b9050602081019050919050565b6000620003c882620003e3565b9050919050565b6000620003dc82620003bb565b9050919050565b600073ffffffffffffffffffffffffffffffffffffffff82169050919050565b60005b838110156200042357808201518184015260208101905062000406565b8381111562000433576000848401525b50505050565b600060028204905060018216806200045257607f821691505b60208210811415620004695762000468620004a5565b5b50919050565b6200047a8262000503565b810181811067ffffffffffffffff821117156200049c576200049b620004d4565b5b80604052505050565b7f4e487b7100000000000000000000000000000000000000000000000000000000600052602260045260246000fd5b7f4e487b7100000000000000000000000000000000000000000000000000000000600052604160045260246000fd5b6000601f19601f8301169050919050565b6200051f81620003cf565b81146200052b57600080fd5b50565b60805160601c6127826200056260003960008181610b8401528181610c7001528181610ea801526110a201526127826000f3fe608060405234801561001057600080fd5b506004361061014d5760003560e01c80638da5cb5b116100c3578063c157253d1161007c578063c157253d146103ee578063d96a094a1461041e578063dd62ed3e1461043a578063e4849b321461046a578063f2fde38b14610486578063f4325d67146104a25761014d565b80638da5cb5b146102f25780639477d85d1461031057806395d89b4114610340578063a457c2d71461035e578063a9059cbb1461038e578063ace4e824146103be5761014d565b806323b872dd1161011557806323b872dd1461021e578063313ce5671461024e578063395093511461026c57806340c10f191461029c57806370a08231146102b8578063715018a6146102e85761014d565b806306fdde0314610152578063095ea7b3146101705780630e24a12a146101a05780630f80fc58146101d057806318160ddd14610200575b600080fd5b61015a6104c0565b6040516101679190611e62565b60405180910390f35b61018a60048036038101906101859190611a27565b610552565b6040516101979190611e2c565b60405180910390f35b6101ba60048036038101906101b59190611ade565b610570565b6040516101c79190612044565b60405180910390f35b6101ea60048036038101906101e59190611a8c565b6105c4565b6040516101f79190612044565b60405180910390f35b6102086105d9565b6040516102159190612044565b60405180910390f35b610238600480360381019061023391906119d8565b6105e3565b6040516102459190611e2c565b60405180910390f35b6102566106db565b604051610263919061205f565b60405180910390f35b61028660048036038101906102819190611a27565b6106e4565b6040516102939190611e2c565b60405180910390f35b6102b660048036038101906102b19190611a27565b610790565b005b6102d260048036038101906102cd9190611973565b61081a565b6040516102df9190612044565b60405180910390f35b6102f0610862565b005b6102fa6108ea565b6040516103079190611d88565b60405180910390f35b61032a60048036038101906103259190611ade565b610914565b6040516103379190612044565b60405180910390f35b610348610928565b6040516103559190611e62565b60405180910390f35b61037860048036038101906103739190611a27565b6109ba565b6040516103859190611e2c565b60405180910390f35b6103a860048036038101906103a39190611a27565b610aa5565b6040516103b59190611e2c565b60405180910390f35b6103d860048036038101906103d39190611ade565b610ac3565b6040516103e59190612044565b60405180910390f35b61040860048036038101906104039190611ade565b610b17565b6040516104159190612044565b60405180910390f35b61043860048036038101906104339190611a8c565b610b2b565b005b610454600480360381019061044f919061199c565b610d7c565b6040516104619190612044565b60405180910390f35b610484600480360381019061047f9190611a8c565b610e03565b005b6104a0600480360381019061049b9190611973565b610fa8565b005b6104aa6110a0565b6040516104b79190611e47565b60405180910390f35b6060600380546104cf90612257565b80601f01602080910402602001604051908101604052809291908181526020018280546104fb90612257565b80156105485780601f1061051d57610100808354040283529160200191610548565b820191906000526020600020905b81548152906001019060200180831161052b57829003601f168201915b5050505050905090565b600061056661055f6110c4565b84846110cc565b6001905092915050565b600080600261057e856105c4565b61058891906120ec565b9050600060026105a2858761059d9190612177565b6105c4565b6105ac91906120ec565b905080826105ba9190612177565b9250505092915050565b600081826105d2919061211d565b9050919050565b6000600254905090565b60006105f0848484611297565b6000600160008673ffffffffffffffffffffffffffffffffffffffff1673ffffffffffffffffffffffffffffffffffffffff168152602001908152602001600020600061063b6110c4565b73ffffffffffffffffffffffffffffffffffffffff1673ffffffffffffffffffffffffffffffffffffffff168152602001908152602001600020549050828110156106bb576040517f08c379a00000000000000000000000000000000000000000000000000000000081526004016106b290611f44565b60405180910390fd5b6106cf856106c76110c4565b8584036110cc565b60019150509392505050565b60006012905090565b60006107866106f16110c4565b8484600160006106ff6110c4565b73ffffffffffffffffffffffffffffffffffffffff1673ffffffffffffffffffffffffffffffffffffffff16815260200190815260200160002060008873ffffffffffffffffffffffffffffffffffffffff1673ffffffffffffffffffffffffffffffffffffffff168152602001908152602001600020546107819190612096565b6110cc565b6001905092915050565b6107986110c4565b73ffffffffffffffffffffffffffffffffffffffff166107b66108ea565b73ffffffffffffffffffffffffffffffffffffffff161461080c576040517f08c379a000000000000000000000000000000000000000000000000000000000815260040161080390611f64565b60405180910390fd5b6108168282611518565b5050565b60008060008373ffffffffffffffffffffffffffffffffffffffff1673ffffffffffffffffffffffffffffffffffffffff168152602001908152602001600020549050919050565b61086a6110c4565b73ffffffffffffffffffffffffffffffffffffffff166108886108ea565b73ffffffffffffffffffffffffffffffffffffffff16146108de576040517f08c379a00000000000000000000000000000000000000000000000000000000081526004016108d590611f64565b60405180910390fd5b6108e86000611678565b565b6000600560009054906101000a900473ffffffffffffffffffffffffffffffffffffffff16905090565b60006109208284610570565b905092915050565b60606004805461093790612257565b80601f016020809104026020016040519081016040528092919081815260200182805461096390612257565b80156109b05780601f10610985576101008083540402835291602001916109b0565b820191906000526020600020905b81548152906001019060200180831161099357829003601f168201915b5050505050905090565b600080600160006109c96110c4565b73ffffffffffffffffffffffffffffffffffffffff1673ffffffffffffffffffffffffffffffffffffffff16815260200190815260200160002060008573ffffffffffffffffffffffffffffffffffffffff1673ffffffffffffffffffffffffffffffffffffffff16815260200190815260200160002054905082811015610a86576040517f08c379a0000000000000000000000000000000000000000000000000000000008152600401610a7d90612004565b60405180910390fd5b610a9a610a916110c4565b858584036110cc565b600191505092915050565b6000610ab9610ab26110c4565b8484611297565b6001905092915050565b6000806002610adc8486610ad79190612096565b6105c4565b610ae691906120ec565b905060006002610af5866105c4565b610aff91906120ec565b90508082610b0d9190612177565b9250505092915050565b6000610b238284610ac3565b905092915050565b6000670de0b6b3a7640000610b3e6105d9565b610b4891906120ec565b90506000610b69670de0b6b3a764000084610b6391906120ec565b83610b17565b9050670de0b6b3a764000081610b7f919061211d565b9050807f000000000000000000000000000000000000000000000000000000000000000073ffffffffffffffffffffffffffffffffffffffff1663dd62ed3e33306040518363ffffffff1660e01b8152600401610bdd929190611da3565b60206040518083038186803b158015610bf557600080fd5b505afa158015610c09573d6000803e3d6000fd5b505050506040513d601f19601f82011682018060405250810190610c2d9190611ab5565b1015610c6e576040517f08c379a0000000000000000000000000000000000000000000000000000000008152600401610c6590611f04565b60405180910390fd5b7f000000000000000000000000000000000000000000000000000000000000000073ffffffffffffffffffffffffffffffffffffffff166323b872dd3330846040518463ffffffff1660e01b8152600401610ccb93929190611dcc565b602060405180830381600087803b158015610ce557600080fd5b505af1158015610cf9573d6000803e3d6000fd5b505050506040513d601f19601f82011682018060405250810190610d1d9190611a63565b50610d283384611518565b823373ffffffffffffffffffffffffffffffffffffffff167f1cbc5ab135991bd2b6a4b034a04aa2aa086dac1371cb9b16b8b5e2ed6b036bed83604051610d6f9190612044565b60405180910390a3505050565b6000600160008473ffffffffffffffffffffffffffffffffffffffff1673ffffffffffffffffffffffffffffffffffffffff16815260200190815260200160002060008373ffffffffffffffffffffffffffffffffffffffff1673ffffffffffffffffffffffffffffffffffffffff16815260200190815260200160002054905092915050565b60008111610e46576040517f08c379a0000000000000000000000000000000000000000000000000000000008152600401610e3d90611fc4565b60405180910390fd5b6000670de0b6b3a7640000610e596105d9565b610e6391906120ec565b90506000610e84670de0b6b3a764000084610e7e91906120ec565b83610914565b9050670de0b6b3a764000081610e9a919061211d565b9050610ea6338461173e565b7f000000000000000000000000000000000000000000000000000000000000000073ffffffffffffffffffffffffffffffffffffffff1663a9059cbb33836040518363ffffffff1660e01b8152600401610f01929190611e03565b602060405180830381600087803b158015610f1b57600080fd5b505af1158015610f2f573d6000803e3d6000fd5b505050506040513d601f19601f82011682018060405250810190610f539190611a63565b50823373ffffffffffffffffffffffffffffffffffffffff167fed7a144fad14804d5c249145e3e0e2b63a9eb455b76aee5bc92d711e9bba3e4a83604051610f9b9190612044565b60405180910390a3505050565b610fb06110c4565b73ffffffffffffffffffffffffffffffffffffffff16610fce6108ea565b73ffffffffffffffffffffffffffffffffffffffff1614611024576040517f08c379a000000000000000000000000000000000000000000000000000000000815260040161101b90611f64565b60405180910390fd5b600073ffffffffffffffffffffffffffffffffffffffff168173ffffffffffffffffffffffffffffffffffffffff161415611094576040517f08c379a000000000000000000000000000000000000000000000000000000000815260040161108b90611ec4565b60405180910390fd5b61109d81611678565b50565b7f000000000000000000000000000000000000000000000000000000000000000081565b600033905090565b600073ffffffffffffffffffffffffffffffffffffffff168373ffffffffffffffffffffffffffffffffffffffff16141561113c576040517f08c379a000000000000000000000000000000000000000000000000000000000815260040161113390611fe4565b60405180910390fd5b600073ffffffffffffffffffffffffffffffffffffffff168273ffffffffffffffffffffffffffffffffffffffff1614156111ac576040517f08c379a00000000000000000000000000000000000000000000000000000000081526004016111a390611ee4565b60405180910390fd5b80600160008573ffffffffffffffffffffffffffffffffffffffff1673ffffffffffffffffffffffffffffffffffffffff16815260200190815260200160002060008473ffffffffffffffffffffffffffffffffffffffff1673ffffffffffffffffffffffffffffffffffffffff168152602001908152602001600020819055508173ffffffffffffffffffffffffffffffffffffffff168373ffffffffffffffffffffffffffffffffffffffff167f8c5be1e5ebec7d5bd14f71427d1e84f3dd0314c0f7b2291e5b200ac8c7c3b9258360405161128a9190612044565b60405180910390a3505050565b600073ffffffffffffffffffffffffffffffffffffffff168373ffffffffffffffffffffffffffffffffffffffff161415611307576040517f08c379a00000000000000000000000000000000000000000000000000000000081526004016112fe90611fa4565b60405180910390fd5b600073ffffffffffffffffffffffffffffffffffffffff168273ffffffffffffffffffffffffffffffffffffffff161415611377576040517f08c379a000000000000000000000000000000000000000000000000000000000815260040161136e90611e84565b60405180910390fd5b611382838383611915565b60008060008573ffffffffffffffffffffffffffffffffffffffff1673ffffffffffffffffffffffffffffffffffffffff16815260200190815260200160002054905081811015611408576040517f08c379a00000000000000000000000000000000000000000000000000000000081526004016113ff90611f24565b60405180910390fd5b8181036000808673ffffffffffffffffffffffffffffffffffffffff1673ffffffffffffffffffffffffffffffffffffffff16815260200190815260200160002081905550816000808573ffffffffffffffffffffffffffffffffffffffff1673ffffffffffffffffffffffffffffffffffffffff168152602001908152602001600020600082825461149b9190612096565b925050819055508273ffffffffffffffffffffffffffffffffffffffff168473ffffffffffffffffffffffffffffffffffffffff167fddf252ad1be2c89b69c2b068fc378daa952ba7f163c4a11628f55a4df523b3ef846040516114ff9190612044565b60405180910390a361151284848461191a565b50505050565b600073ffffffffffffffffffffffffffffffffffffffff168273ffffffffffffffffffffffffffffffffffffffff161415611588576040517f08c379a000000000000000000000000000000000000000000000000000000000815260040161157f90612024565b60405180910390fd5b61159460008383611915565b80600260008282546115a69190612096565b92505081905550806000808473ffffffffffffffffffffffffffffffffffffffff1673ffffffffffffffffffffffffffffffffffffffff16815260200190815260200160002060008282546115fb9190612096565b925050819055508173ffffffffffffffffffffffffffffffffffffffff16600073ffffffffffffffffffffffffffffffffffffffff167fddf252ad1be2c89b69c2b068fc378daa952ba7f163c4a11628f55a4df523b3ef836040516116609190612044565b60405180910390a36116746000838361191a565b5050565b6000600560009054906101000a900473ffffffffffffffffffffffffffffffffffffffff16905081600560006101000a81548173ffffffffffffffffffffffffffffffffffffffff021916908373ffffffffffffffffffffffffffffffffffffffff1602179055508173ffffffffffffffffffffffffffffffffffffffff168173ffffffffffffffffffffffffffffffffffffffff167f8be0079c531659141344cd1fd0a4f28419497f9722a3daafe3b4186f6b6457e060405160405180910390a35050565b600073ffffffffffffffffffffffffffffffffffffffff168273ffffffffffffffffffffffffffffffffffffffff1614156117ae576040517f08c379a00000000000000000000000000000000000000000000000000000000081526004016117a590611f84565b60405180910390fd5b6117ba82600083611915565b60008060008473ffffffffffffffffffffffffffffffffffffffff1673ffffffffffffffffffffffffffffffffffffffff16815260200190815260200160002054905081811015611840576040517f08c379a000000000000000000000000000000000000000000000000000000000815260040161183790611ea4565b60405180910390fd5b8181036000808573ffffffffffffffffffffffffffffffffffffffff1673ffffffffffffffffffffffffffffffffffffffff1681526020019081526020016000208190555081600260008282546118979190612177565b92505081905550600073ffffffffffffffffffffffffffffffffffffffff168373ffffffffffffffffffffffffffffffffffffffff167fddf252ad1be2c89b69c2b068fc378daa952ba7f163c4a11628f55a4df523b3ef846040516118fc9190612044565b60405180910390a36119108360008461191a565b505050565b505050565b505050565b60008135905061192e81612707565b92915050565b6000815190506119438161271e565b92915050565b60008135905061195881612735565b92915050565b60008151905061196d81612735565b92915050565b60006020828403121561198557600080fd5b60006119938482850161191f565b91505092915050565b600080604083850312156119af57600080fd5b60006119bd8582860161191f565b92505060206119ce8582860161191f565b9150509250929050565b6000806000606084860312156119ed57600080fd5b60006119fb8682870161191f565b9350506020611a0c8682870161191f565b9250506040611a1d86828701611949565b9150509250925092565b60008060408385031215611a3a57600080fd5b6000611a488582860161191f565b9250506020611a5985828601611949565b9150509250929050565b600060208284031215611a7557600080fd5b6000611a8384828501611934565b91505092915050565b600060208284031215611a9e57600080fd5b6000611aac84828501611949565b91505092915050565b600060208284031215611ac757600080fd5b6000611ad58482850161195e565b91505092915050565b60008060408385031215611af157600080fd5b6000611aff85828601611949565b9250506020611b1085828601611949565b9150509250929050565b611b23816121ab565b82525050565b611b32816121bd565b82525050565b611b4181612200565b82525050565b6000611b528261207a565b611b5c8185612085565b9350611b6c818560208601612224565b611b7581612316565b840191505092915050565b6000611b8d602383612085565b9150611b9882612327565b604082019050919050565b6000611bb0602283612085565b9150611bbb82612376565b604082019050919050565b6000611bd3602683612085565b9150611bde826123c5565b604082019050919050565b6000611bf6602283612085565b9150611c0182612414565b604082019050919050565b6000611c19602d83612085565b9150611c2482612463565b604082019050919050565b6000611c3c602683612085565b9150611c47826124b2565b604082019050919050565b6000611c5f602883612085565b9150611c6a82612501565b604082019050919050565b6000611c82602083612085565b9150611c8d82612550565b602082019050919050565b6000611ca5602183612085565b9150611cb082612579565b604082019050919050565b6000611cc8602583612085565b9150611cd3826125c8565b604082019050919050565b6000611ceb601f83612085565b9150611cf682612617565b602082019050919050565b6000611d0e602483612085565b9150611d1982612640565b604082019050919050565b6000611d31602583612085565b9150611d3c8261268f565b604082019050919050565b6000611d54601f83612085565b9150611d5f826126de565b602082019050919050565b611d73816121e9565b82525050565b611d82816121f3565b82525050565b6000602082019050611d9d6000830184611b1a565b92915050565b6000604082019050611db86000830185611b1a565b611dc56020830184611b1a565b9392505050565b6000606082019050611de16000830186611b1a565b611dee6020830185611b1a565b611dfb6040830184611d6a565b949350505050565b6000604082019050611e186000830185611b1a565b611e256020830184611d6a565b9392505050565b6000602082019050611e416000830184611b29565b92915050565b6000602082019050611e5c6000830184611b38565b92915050565b60006020820190508181036000830152611e7c8184611b47565b905092915050565b60006020820190508181036000830152611e9d81611b80565b9050919050565b60006020820190508181036000830152611ebd81611ba3565b9050919050565b60006020820190508181036000830152611edd81611bc6565b9050919050565b60006020820190508181036000830152611efd81611be9565b9050919050565b60006020820190508181036000830152611f1d81611c0c565b9050919050565b60006020820190508181036000830152611f3d81611c2f565b9050919050565b60006020820190508181036000830152611f5d81611c52565b9050919050565b60006020820190508181036000830152611f7d81611c75565b9050919050565b60006020820190508181036000830152611f9d81611c98565b9050919050565b60006020820190508181036000830152611fbd81611cbb565b9050919050565b60006020820190508181036000830152611fdd81611cde565b9050919050565b60006020820190508181036000830152611ffd81611d01565b9050919050565b6000602082019050818103600083015261201d81611d24565b9050919050565b6000602082019050818103600083015261203d81611d47565b9050919050565b60006020820190506120596000830184611d6a565b92915050565b60006020820190506120746000830184611d79565b92915050565b600081519050919050565b600082825260208201905092915050565b60006120a1826121e9565b91506120ac836121e9565b9250827fffffffffffffffffffffffffffffffffffffffffffffffffffffffffffffffff038211156120e1576120e0612289565b5b828201905092915050565b60006120f7826121e9565b9150612102836121e9565b925082612112576121116122b8565b5b828204905092915050565b6000612128826121e9565b9150612133836121e9565b9250817fffffffffffffffffffffffffffffffffffffffffffffffffffffffffffffffff048311821515161561216c5761216b612289565b5b828202905092915050565b6000612182826121e9565b915061218d836121e9565b9250828210156121a05761219f612289565b5b828203905092915050565b60006121b6826121c9565b9050919050565b60008115159050919050565b600073ffffffffffffffffffffffffffffffffffffffff82169050919050565b6000819050919050565b600060ff82169050919050565b600061220b82612212565b9050919050565b600061221d826121c9565b9050919050565b60005b83811015612242578082015181840152602081019050612227565b83811115612251576000848401525b50505050565b6000600282049050600182168061226f57607f821691505b60208210811415612283576122826122e7565b5b50919050565b7f4e487b7100000000000000000000000000000000000000000000000000000000600052601160045260246000fd5b7f4e487b7100000000000000000000000000000000000000000000000000000000600052601260045260246000fd5b7f4e487b7100000000000000000000000000000000000000000000000000000000600052602260045260246000fd5b6000601f19601f8301169050919050565b7f45524332303a207472616e7366657220746f20746865207a65726f206164647260008201527f6573730000000000000000000000000000000000000000000000000000000000602082015250565b7f45524332303a206275726e20616d6f756e7420657863656564732062616c616e60008201527f6365000000000000000000000000000000000000000000000000000000000000602082015250565b7f4f776e61626c653a206e6577206f776e657220697320746865207a65726f206160008201527f6464726573730000000000000000000000000000000000000000000000000000602082015250565b7f45524332303a20617070726f766520746f20746865207a65726f20616464726560008201527f7373000000000000000000000000000000000000000000000000000000000000602082015250565b7f536d617274546f6b656e3a207472616e7366657220616d6f756e74206578636560008201527f65647320616c6c6f77616e636500000000000000000000000000000000000000602082015250565b7f45524332303a207472616e7366657220616d6f756e742065786365656473206260008201527f616c616e63650000000000000000000000000000000000000000000000000000602082015250565b7f45524332303a207472616e7366657220616d6f756e742065786365656473206160008201527f6c6c6f77616e6365000000000000000000000000000000000000000000000000602082015250565b7f4f776e61626c653a2063616c6c6572206973206e6f7420746865206f776e6572600082015250565b7f45524332303a206275726e2066726f6d20746865207a65726f2061646472657360008201527f7300000000000000000000000000000000000000000000000000000000000000602082015250565b7f45524332303a207472616e736665722066726f6d20746865207a65726f20616460008201527f6472657373000000000000000000000000000000000000000000000000000000602082015250565b7f536d617274546f6b656e3a20696e76616c69642073656c6c20616d6f756e7400600082015250565b7f45524332303a20617070726f76652066726f6d20746865207a65726f2061646460008201527f7265737300000000000000000000000000000000000000000000000000000000602082015250565b7f45524332303a2064656372656173656420616c6c6f77616e63652062656c6f7760008201527f207a65726f000000000000000000000000000000000000000000000000000000602082015250565b7f45524332303a206d696e7420746f20746865207a65726f206164647265737300600082015250565b612710816121ab565b811461271b57600080fd5b50565b612727816121bd565b811461273257600080fd5b50565b61273e816121e9565b811461274957600080fd5b5056fea2646970667358221220d812dcdbdd1e51b4197c70e03853655db186514487805705c857133fb0d9630664736f6c63430008040033",
  "linkReferences": {},
  "deployedLinkReferences": {}
}