{
  "_format": "hh-sol-artifact-1",
  "contractName": "SmartToken",
  "sourceName": "contracts/SmartToken.sol",
  "abi": [
    {
      "inputs": [
        {
          "internalType": "string",
          "name": "_name",
          "type": "string"
        },
        {
          "internalType": "string",
          "name": "_symbol",
          "type": "string"
        },
        {
          "internalType": "contract IERC20",
          "name": "_token",
          "type": "address"
        }
      ],
      "stateMutability": "nonpayable",
      "type": "constructor"
    },
    {
      "anonymous": false,
      "inputs": [
        {
          "indexed": true,
          "internalType": "address",
          "name": "owner",
          "type": "address"
        },
        {
          "indexed": true,
          "internalType": "address",
          "name": "spender",
          "type": "address"
        },
        {
          "indexed": false,
          "internalType": "uint256",
          "name": "value",
          "type": "uint256"
        }
      ],
      "name": "Approval",
      "type": "event"
    },
    {
      "anonymous": false,
      "inputs": [
        {
          "indexed": true,
          "internalType": "address",
          "name": "buyer",
          "type": "address"
        },
        {
          "indexed": true,
          "internalType": "uint256",
          "name": "amount",
          "type": "uint256"
        },
        {
          "indexed": false,
          "internalType": "uint256",
          "name": "paid",
          "type": "uint256"
        }
      ],
      "name": "Buy",
      "type": "event"
    },
    {
      "anonymous": false,
      "inputs": [
        {
          "indexed": true,
          "internalType": "address",
          "name": "previousOwner",
          "type": "address"
        },
        {
          "indexed": true,
          "internalType": "address",
          "name": "newOwner",
          "type": "address"
        }
      ],
      "name": "OwnershipTransferred",
      "type": "event"
    },
    {
      "anonymous": false,
      "inputs": [
        {
          "indexed": true,
          "internalType": "address",
          "name": "seller",
          "type": "address"
        },
        {
          "indexed": true,
          "internalType": "uint256",
          "name": "amount",
          "type": "uint256"
        },
        {
          "indexed": false,
          "internalType": "uint256",
          "name": "received",
          "type": "uint256"
        }
      ],
      "name": "Sell",
      "type": "event"
    },
    {
      "anonymous": false,
      "inputs": [
        {
          "indexed": true,
          "internalType": "address",
          "name": "from",
          "type": "address"
        },
        {
          "indexed": true,
          "internalType": "address",
          "name": "to",
          "type": "address"
        },
        {
          "indexed": false,
          "internalType": "uint256",
          "name": "value",
          "type": "uint256"
        }
      ],
      "name": "Transfer",
      "type": "event"
    },
    {
      "inputs": [
        {
          "internalType": "address",
          "name": "owner",
          "type": "address"
        },
        {
          "internalType": "address",
          "name": "spender",
          "type": "address"
        }
      ],
      "name": "allowance",
      "outputs": [
        {
          "internalType": "uint256",
          "name": "",
          "type": "uint256"
        }
      ],
      "stateMutability": "view",
      "type": "function"
    },
    {
      "inputs": [
        {
          "internalType": "address",
          "name": "spender",
          "type": "address"
        },
        {
          "internalType": "uint256",
          "name": "amount",
          "type": "uint256"
        }
      ],
      "name": "approve",
      "outputs": [
        {
          "internalType": "bool",
          "name": "",
          "type": "bool"
        }
      ],
      "stateMutability": "nonpayable",
      "type": "function"
    },
    {
      "inputs": [
        {
          "internalType": "address",
          "name": "account",
          "type": "address"
        }
      ],
      "name": "balanceOf",
      "outputs": [
        {
          "internalType": "uint256",
          "name": "",
          "type": "uint256"
        }
      ],
      "stateMutability": "view",
      "type": "function"
    },
    {
      "inputs": [
        {
          "internalType": "uint256",
          "name": "_amount",
          "type": "uint256"
        }
      ],
      "name": "buy",
      "outputs": [],
      "stateMutability": "nonpayable",
      "type": "function"
    },
    {
      "inputs": [
        {
          "internalType": "uint256",
          "name": "_tokenSupply",
          "type": "uint256"
        },
        {
          "internalType": "uint256",
          "name": "_purchaseAmount",
          "type": "uint256"
        }
      ],
      "name": "calculatePurchaseReturn",
      "outputs": [
        {
          "internalType": "uint256",
          "name": "",
          "type": "uint256"
        }
      ],
      "stateMutability": "view",
      "type": "function"
    },
    {
      "inputs": [
        {
          "internalType": "uint256",
          "name": "_tokenSupply",
          "type": "uint256"
        },
        {
          "internalType": "uint256",
          "name": "_sellAmount",
          "type": "uint256"
        }
      ],
      "name": "calculateSalesReturn",
      "outputs": [
        {
          "internalType": "uint256",
          "name": "",
          "type": "uint256"
        }
      ],
      "stateMutability": "view",
      "type": "function"
    },
    {
      "inputs": [],
      "name": "decimals",
      "outputs": [
        {
          "internalType": "uint8",
          "name": "",
          "type": "uint8"
        }
      ],
      "stateMutability": "view",
      "type": "function"
    },
    {
      "inputs": [
        {
          "internalType": "address",
          "name": "spender",
          "type": "address"
        },
        {
          "internalType": "uint256",
          "name": "subtractedValue",
          "type": "uint256"
        }
      ],
      "name": "decreaseAllowance",
      "outputs": [
        {
          "internalType": "bool",
          "name": "",
          "type": "bool"
        }
      ],
      "stateMutability": "nonpayable",
      "type": "function"
    },
    {
      "inputs": [
        {
          "internalType": "uint256",
          "name": "_x",
          "type": "uint256"
        }
      ],
      "name": "exponent",
      "outputs": [
        {
          "internalType": "uint256",
          "name": "",
          "type": "uint256"
        }
      ],
      "stateMutability": "view",
      "type": "function"
    },
    {
      "inputs": [
        {
          "internalType": "address",
          "name": "spender",
          "type": "address"
        },
        {
          "internalType": "uint256",
          "name": "addedValue",
          "type": "uint256"
        }
      ],
      "name": "increaseAllowance",
      "outputs": [
        {
          "internalType": "bool",
          "name": "",
          "type": "bool"
        }
      ],
      "stateMutability": "nonpayable",
      "type": "function"
    },
    {
      "inputs": [
        {
          "internalType": "address",
          "name": "_account",
          "type": "address"
        },
        {
          "internalType": "uint256",
          "name": "_amount",
          "type": "uint256"
        }
      ],
      "name": "mint",
      "outputs": [],
      "stateMutability": "nonpayable",
      "type": "function"
    },
    {
      "inputs": [],
      "name": "name",
      "outputs": [
        {
          "internalType": "string",
          "name": "",
          "type": "string"
        }
      ],
      "stateMutability": "view",
      "type": "function"
    },
    {
      "inputs": [],
      "name": "owner",
      "outputs": [
        {
          "internalType": "address",
          "name": "",
          "type": "address"
        }
      ],
      "stateMutability": "view",
      "type": "function"
    },
    {
      "inputs": [],
      "name": "renounceOwnership",
      "outputs": [],
      "stateMutability": "nonpayable",
      "type": "function"
    },
    {
      "inputs": [],
      "name": "reserveToken",
      "outputs": [
        {
          "internalType": "contract IERC20",
          "name": "",
          "type": "address"
        }
      ],
      "stateMutability": "view",
      "type": "function"
    },
    {
      "inputs": [
        {
          "internalType": "uint256",
          "name": "_amount",
          "type": "uint256"
        }
      ],
      "name": "sell",
      "outputs": [],
      "stateMutability": "nonpayable",
      "type": "function"
    },
    {
      "inputs": [],
      "name": "symbol",
      "outputs": [
        {
          "internalType": "string",
          "name": "",
          "type": "string"
        }
      ],
      "stateMutability": "view",
      "type": "function"
    },
    {
      "inputs": [],
      "name": "totalSupply",
      "outputs": [
        {
          "internalType": "uint256",
          "name": "",
          "type": "uint256"
        }
      ],
      "stateMutability": "view",
      "type": "function"
    },
    {
      "inputs": [
        {
          "internalType": "address",
          "name": "recipient",
          "type": "address"
        },
        {
          "internalType": "uint256",
          "name": "amount",
          "type": "uint256"
        }
      ],
      "name": "transfer",
      "outputs": [
        {
          "internalType": "bool",
          "name": "",
          "type": "bool"
        }
      ],
      "stateMutability": "nonpayable",
      "type": "function"
    },
    {
      "inputs": [
        {
          "internalType": "address",
          "name": "sender",
          "type": "address"
        },
        {
          "internalType": "address",
          "name": "recipient",
          "type": "address"
        },
        {
          "internalType": "uint256",
          "name": "amount",
          "type": "uint256"
        }
      ],
      "name": "transferFrom",
      "outputs": [
        {
          "internalType": "bool",
          "name": "",
          "type": "bool"
        }
      ],
      "stateMutability": "nonpayable",
      "type": "function"
    },
    {
      "inputs": [
        {
          "internalType": "address",
          "name": "newOwner",
          "type": "address"
        }
      ],
      "name": "transferOwnership",
      "outputs": [],
      "stateMutability": "nonpayable",
      "type": "function"
    }
  ],
  "bytecode": "0x60a06040523480156200001157600080fd5b5060405162002c4638038062002c468339818101604052810190620000379190620002d4565b82828160039080519060200190620000519291906200019b565b5080600490805190602001906200006a9291906200019b565b5050506200008d62000081620000cd60201b60201c565b620000d560201b60201c565b8073ffffffffffffffffffffffffffffffffffffffff1660808173ffffffffffffffffffffffffffffffffffffffff1660601b815250505050506200052e565b600033905090565b6000600560009054906101000a900473ffffffffffffffffffffffffffffffffffffffff16905081600560006101000a81548173ffffffffffffffffffffffffffffffffffffffff021916908373ffffffffffffffffffffffffffffffffffffffff1602179055508173ffffffffffffffffffffffffffffffffffffffff168173ffffffffffffffffffffffffffffffffffffffff167f8be0079c531659141344cd1fd0a4f28419497f9722a3daafe3b4186f6b6457e060405160405180910390a35050565b828054620001a99062000439565b90600052602060002090601f016020900481019282620001cd576000855562000219565b82601f10620001e857805160ff191683800117855562000219565b8280016001018555821562000219579182015b8281111562000218578251825591602001919060010190620001fb565b5b5090506200022891906200022c565b5090565b5b80821115620002475760008160009055506001016200022d565b5090565b6000620002626200025c8462000385565b6200035c565b9050828152602081018484840111156200027b57600080fd5b6200028884828562000403565b509392505050565b600081519050620002a18162000514565b92915050565b600082601f830112620002b957600080fd5b8151620002cb8482602086016200024b565b91505092915050565b600080600060608486031215620002ea57600080fd5b600084015167ffffffffffffffff8111156200030557600080fd5b6200031386828701620002a7565b935050602084015167ffffffffffffffff8111156200033157600080fd5b6200033f86828701620002a7565b9250506040620003528682870162000290565b9150509250925092565b6000620003686200037b565b90506200037682826200046f565b919050565b6000604051905090565b600067ffffffffffffffff821115620003a357620003a2620004d4565b5b620003ae8262000503565b9050602081019050919050565b6000620003c882620003e3565b9050919050565b6000620003dc82620003bb565b9050919050565b600073ffffffffffffffffffffffffffffffffffffffff82169050919050565b60005b838110156200042357808201518184015260208101905062000406565b8381111562000433576000848401525b50505050565b600060028204905060018216806200045257607f821691505b60208210811415620004695762000468620004a5565b5b50919050565b6200047a8262000503565b810181811067ffffffffffffffff821117156200049c576200049b620004d4565b5b80604052505050565b7f4e487b7100000000000000000000000000000000000000000000000000000000600052602260045260246000fd5b7f4e487b7100000000000000000000000000000000000000000000000000000000600052604160045260246000fd5b6000601f19601f8301169050919050565b6200051f81620003cf565b81146200052b57600080fd5b50565b60805160601c6126e46200056260003960008181610ae601528181610bd201528181610e0a015261100401526126e46000f3fe608060405234801561001057600080fd5b50600436106101375760003560e01c8063715018a6116100b8578063ace4e8241161007c578063ace4e82414610378578063d96a094a146103a8578063dd62ed3e146103c4578063e4849b32146103f4578063f2fde38b14610410578063f4325d671461042c57610137565b8063715018a6146102d25780638da5cb5b146102dc57806395d89b41146102fa578063a457c2d714610318578063a9059cbb1461034857610137565b806323b872dd116100ff57806323b872dd14610208578063313ce56714610238578063395093511461025657806340c10f191461028657806370a08231146102a257610137565b806306fdde031461013c578063095ea7b31461015a5780630e24a12a1461018a5780630f80fc58146101ba57806318160ddd146101ea575b600080fd5b61014461044a565b6040516101519190611dc4565b60405180910390f35b610174600480360381019061016f9190611989565b6104dc565b6040516101819190611d8e565b60405180910390f35b6101a4600480360381019061019f9190611a40565b6104fa565b6040516101b19190611fa6565b60405180910390f35b6101d460048036038101906101cf91906119ee565b61054e565b6040516101e19190611fa6565b60405180910390f35b6101f2610563565b6040516101ff9190611fa6565b60405180910390f35b610222600480360381019061021d919061193a565b61056d565b60405161022f9190611d8e565b60405180910390f35b610240610665565b60405161024d9190611fc1565b60405180910390f35b610270600480360381019061026b9190611989565b61066e565b60405161027d9190611d8e565b60405180910390f35b6102a0600480360381019061029b9190611989565b61071a565b005b6102bc60048036038101906102b791906118d5565b6107a4565b6040516102c99190611fa6565b60405180910390f35b6102da6107ec565b005b6102e4610874565b6040516102f19190611cea565b60405180910390f35b61030261089e565b60405161030f9190611dc4565b60405180910390f35b610332600480360381019061032d9190611989565b610930565b60405161033f9190611d8e565b60405180910390f35b610362600480360381019061035d9190611989565b610a1b565b60405161036f9190611d8e565b60405180910390f35b610392600480360381019061038d9190611a40565b610a39565b60405161039f9190611fa6565b60405180910390f35b6103c260048036038101906103bd91906119ee565b610a8d565b005b6103de60048036038101906103d991906118fe565b610cde565b6040516103eb9190611fa6565b60405180910390f35b61040e600480360381019061040991906119ee565b610d65565b005b61042a600480360381019061042591906118d5565b610f0a565b005b610434611002565b6040516104419190611da9565b60405180910390f35b606060038054610459906121b9565b80601f0160208091040260200160405190810160405280929190818152602001828054610485906121b9565b80156104d25780601f106104a7576101008083540402835291602001916104d2565b820191906000526020600020905b8154815290600101906020018083116104b557829003601f168201915b5050505050905090565b60006104f06104e9611026565b848461102e565b6001905092915050565b60008060026105088561054e565b610512919061204e565b90506000600261052c858761052791906120d9565b61054e565b610536919061204e565b9050808261054491906120d9565b9250505092915050565b6000818261055c919061207f565b9050919050565b6000600254905090565b600061057a8484846111f9565b6000600160008673ffffffffffffffffffffffffffffffffffffffff1673ffffffffffffffffffffffffffffffffffffffff16815260200190815260200160002060006105c5611026565b73ffffffffffffffffffffffffffffffffffffffff1673ffffffffffffffffffffffffffffffffffffffff16815260200190815260200160002054905082811015610645576040517f08c379a000000000000000000000000000000000000000000000000000000000815260040161063c90611ea6565b60405180910390fd5b61065985610651611026565b85840361102e565b60019150509392505050565b60006012905090565b600061071061067b611026565b848460016000610689611026565b73ffffffffffffffffffffffffffffffffffffffff1673ffffffffffffffffffffffffffffffffffffffff16815260200190815260200160002060008873ffffffffffffffffffffffffffffffffffffffff1673ffffffffffffffffffffffffffffffffffffffff1681526020019081526020016000205461070b9190611ff8565b61102e565b6001905092915050565b610722611026565b73ffffffffffffffffffffffffffffffffffffffff16610740610874565b73ffffffffffffffffffffffffffffffffffffffff1614610796576040517f08c379a000000000000000000000000000000000000000000000000000000000815260040161078d90611ec6565b60405180910390fd5b6107a0828261147a565b5050565b60008060008373ffffffffffffffffffffffffffffffffffffffff1673ffffffffffffffffffffffffffffffffffffffff168152602001908152602001600020549050919050565b6107f4611026565b73ffffffffffffffffffffffffffffffffffffffff16610812610874565b73ffffffffffffffffffffffffffffffffffffffff1614610868576040517f08c379a000000000000000000000000000000000000000000000000000000000815260040161085f90611ec6565b60405180910390fd5b61087260006115da565b565b6000600560009054906101000a900473ffffffffffffffffffffffffffffffffffffffff16905090565b6060600480546108ad906121b9565b80601f01602080910402602001604051908101604052809291908181526020018280546108d9906121b9565b80156109265780601f106108fb57610100808354040283529160200191610926565b820191906000526020600020905b81548152906001019060200180831161090957829003601f168201915b5050505050905090565b6000806001600061093f611026565b73ffffffffffffffffffffffffffffffffffffffff1673ffffffffffffffffffffffffffffffffffffffff16815260200190815260200160002060008573ffffffffffffffffffffffffffffffffffffffff1673ffffffffffffffffffffffffffffffffffffffff168152602001908152602001600020549050828110156109fc576040517f08c379a00000000000000000000000000000000000000000000000000000000081526004016109f390611f66565b60405180910390fd5b610a10610a07611026565b8585840361102e565b600191505092915050565b6000610a2f610a28611026565b84846111f9565b6001905092915050565b6000806002610a528486610a4d9190611ff8565b61054e565b610a5c919061204e565b905060006002610a6b8661054e565b610a75919061204e565b90508082610a8391906120d9565b9250505092915050565b6000670de0b6b3a7640000610aa0610563565b610aaa919061204e565b90506000610acb670de0b6b3a764000084610ac5919061204e565b83610a39565b9050670de0b6b3a764000081610ae1919061207f565b9050807f000000000000000000000000000000000000000000000000000000000000000073ffffffffffffffffffffffffffffffffffffffff1663dd62ed3e33306040518363ffffffff1660e01b8152600401610b3f929190611d05565b60206040518083038186803b158015610b5757600080fd5b505afa158015610b6b573d6000803e3d6000fd5b505050506040513d601f19601f82011682018060405250810190610b8f9190611a17565b1015610bd0576040517f08c379a0000000000000000000000000000000000000000000000000000000008152600401610bc790611e66565b60405180910390fd5b7f000000000000000000000000000000000000000000000000000000000000000073ffffffffffffffffffffffffffffffffffffffff166323b872dd3330846040518463ffffffff1660e01b8152600401610c2d93929190611d2e565b602060405180830381600087803b158015610c4757600080fd5b505af1158015610c5b573d6000803e3d6000fd5b505050506040513d601f19601f82011682018060405250810190610c7f91906119c5565b50610c8a338461147a565b823373ffffffffffffffffffffffffffffffffffffffff167f1cbc5ab135991bd2b6a4b034a04aa2aa086dac1371cb9b16b8b5e2ed6b036bed83604051610cd19190611fa6565b60405180910390a3505050565b6000600160008473ffffffffffffffffffffffffffffffffffffffff1673ffffffffffffffffffffffffffffffffffffffff16815260200190815260200160002060008373ffffffffffffffffffffffffffffffffffffffff1673ffffffffffffffffffffffffffffffffffffffff16815260200190815260200160002054905092915050565b60008111610da8576040517f08c379a0000000000000000000000000000000000000000000000000000000008152600401610d9f90611f26565b60405180910390fd5b6000670de0b6b3a7640000610dbb610563565b610dc5919061204e565b90506000610de682670de0b6b3a764000085610de1919061204e565b6104fa565b9050670de0b6b3a764000081610dfc919061207f565b9050610e0833846116a0565b7f000000000000000000000000000000000000000000000000000000000000000073ffffffffffffffffffffffffffffffffffffffff1663a9059cbb33836040518363ffffffff1660e01b8152600401610e63929190611d65565b602060405180830381600087803b158015610e7d57600080fd5b505af1158015610e91573d6000803e3d6000fd5b505050506040513d601f19601f82011682018060405250810190610eb591906119c5565b50823373ffffffffffffffffffffffffffffffffffffffff167fed7a144fad14804d5c249145e3e0e2b63a9eb455b76aee5bc92d711e9bba3e4a83604051610efd9190611fa6565b60405180910390a3505050565b610f12611026565b73ffffffffffffffffffffffffffffffffffffffff16610f30610874565b73ffffffffffffffffffffffffffffffffffffffff1614610f86576040517f08c379a0000000000000000000000000000000000000000000000000000000008152600401610f7d90611ec6565b60405180910390fd5b600073ffffffffffffffffffffffffffffffffffffffff168173ffffffffffffffffffffffffffffffffffffffff161415610ff6576040517f08c379a0000000000000000000000000000000000000000000000000000000008152600401610fed90611e26565b60405180910390fd5b610fff816115da565b50565b7f000000000000000000000000000000000000000000000000000000000000000081565b600033905090565b600073ffffffffffffffffffffffffffffffffffffffff168373ffffffffffffffffffffffffffffffffffffffff16141561109e576040517f08c379a000000000000000000000000000000000000000000000000000000000815260040161109590611f46565b60405180910390fd5b600073ffffffffffffffffffffffffffffffffffffffff168273ffffffffffffffffffffffffffffffffffffffff16141561110e576040517f08c379a000000000000000000000000000000000000000000000000000000000815260040161110590611e46565b60405180910390fd5b80600160008573ffffffffffffffffffffffffffffffffffffffff1673ffffffffffffffffffffffffffffffffffffffff16815260200190815260200160002060008473ffffffffffffffffffffffffffffffffffffffff1673ffffffffffffffffffffffffffffffffffffffff168152602001908152602001600020819055508173ffffffffffffffffffffffffffffffffffffffff168373ffffffffffffffffffffffffffffffffffffffff167f8c5be1e5ebec7d5bd14f71427d1e84f3dd0314c0f7b2291e5b200ac8c7c3b925836040516111ec9190611fa6565b60405180910390a3505050565b600073ffffffffffffffffffffffffffffffffffffffff168373ffffffffffffffffffffffffffffffffffffffff161415611269576040517f08c379a000000000000000000000000000000000000000000000000000000000815260040161126090611f06565b60405180910390fd5b600073ffffffffffffffffffffffffffffffffffffffff168273ffffffffffffffffffffffffffffffffffffffff1614156112d9576040517f08c379a00000000000000000000000000000000000000000000000000000000081526004016112d090611de6565b60405180910390fd5b6112e4838383611877565b60008060008573ffffffffffffffffffffffffffffffffffffffff1673ffffffffffffffffffffffffffffffffffffffff1681526020019081526020016000205490508181101561136a576040517f08c379a000000000000000000000000000000000000000000000000000000000815260040161136190611e86565b60405180910390fd5b8181036000808673ffffffffffffffffffffffffffffffffffffffff1673ffffffffffffffffffffffffffffffffffffffff16815260200190815260200160002081905550816000808573ffffffffffffffffffffffffffffffffffffffff1673ffffffffffffffffffffffffffffffffffffffff16815260200190815260200160002060008282546113fd9190611ff8565b925050819055508273ffffffffffffffffffffffffffffffffffffffff168473ffffffffffffffffffffffffffffffffffffffff167fddf252ad1be2c89b69c2b068fc378daa952ba7f163c4a11628f55a4df523b3ef846040516114619190611fa6565b60405180910390a361147484848461187c565b50505050565b600073ffffffffffffffffffffffffffffffffffffffff168273ffffffffffffffffffffffffffffffffffffffff1614156114ea576040517f08c379a00000000000000000000000000000000000000000000000000000000081526004016114e190611f86565b60405180910390fd5b6114f660008383611877565b80600260008282546115089190611ff8565b92505081905550806000808473ffffffffffffffffffffffffffffffffffffffff1673ffffffffffffffffffffffffffffffffffffffff168152602001908152602001600020600082825461155d9190611ff8565b925050819055508173ffffffffffffffffffffffffffffffffffffffff16600073ffffffffffffffffffffffffffffffffffffffff167fddf252ad1be2c89b69c2b068fc378daa952ba7f163c4a11628f55a4df523b3ef836040516115c29190611fa6565b60405180910390a36115d66000838361187c565b5050565b6000600560009054906101000a900473ffffffffffffffffffffffffffffffffffffffff16905081600560006101000a81548173ffffffffffffffffffffffffffffffffffffffff021916908373ffffffffffffffffffffffffffffffffffffffff1602179055508173ffffffffffffffffffffffffffffffffffffffff168173ffffffffffffffffffffffffffffffffffffffff167f8be0079c531659141344cd1fd0a4f28419497f9722a3daafe3b4186f6b6457e060405160405180910390a35050565b600073ffffffffffffffffffffffffffffffffffffffff168273ffffffffffffffffffffffffffffffffffffffff161415611710576040517f08c379a000000000000000000000000000000000000000000000000000000000815260040161170790611ee6565b60405180910390fd5b61171c82600083611877565b60008060008473ffffffffffffffffffffffffffffffffffffffff1673ffffffffffffffffffffffffffffffffffffffff168152602001908152602001600020549050818110156117a2576040517f08c379a000000000000000000000000000000000000000000000000000000000815260040161179990611e06565b60405180910390fd5b8181036000808573ffffffffffffffffffffffffffffffffffffffff1673ffffffffffffffffffffffffffffffffffffffff1681526020019081526020016000208190555081600260008282546117f991906120d9565b92505081905550600073ffffffffffffffffffffffffffffffffffffffff168373ffffffffffffffffffffffffffffffffffffffff167fddf252ad1be2c89b69c2b068fc378daa952ba7f163c4a11628f55a4df523b3ef8460405161185e9190611fa6565b60405180910390a36118728360008461187c565b505050565b505050565b505050565b60008135905061189081612669565b92915050565b6000815190506118a581612680565b92915050565b6000813590506118ba81612697565b92915050565b6000815190506118cf81612697565b92915050565b6000602082840312156118e757600080fd5b60006118f584828501611881565b91505092915050565b6000806040838503121561191157600080fd5b600061191f85828601611881565b925050602061193085828601611881565b9150509250929050565b60008060006060848603121561194f57600080fd5b600061195d86828701611881565b935050602061196e86828701611881565b925050604061197f868287016118ab565b9150509250925092565b6000806040838503121561199c57600080fd5b60006119aa85828601611881565b92505060206119bb858286016118ab565b9150509250929050565b6000602082840312156119d757600080fd5b60006119e584828501611896565b91505092915050565b600060208284031215611a0057600080fd5b6000611a0e848285016118ab565b91505092915050565b600060208284031215611a2957600080fd5b6000611a37848285016118c0565b91505092915050565b60008060408385031215611a5357600080fd5b6000611a61858286016118ab565b9250506020611a72858286016118ab565b9150509250929050565b611a858161210d565b82525050565b611a948161211f565b82525050565b611aa381612162565b82525050565b6000611ab482611fdc565b611abe8185611fe7565b9350611ace818560208601612186565b611ad781612278565b840191505092915050565b6000611aef602383611fe7565b9150611afa82612289565b604082019050919050565b6000611b12602283611fe7565b9150611b1d826122d8565b604082019050919050565b6000611b35602683611fe7565b9150611b4082612327565b604082019050919050565b6000611b58602283611fe7565b9150611b6382612376565b604082019050919050565b6000611b7b602d83611fe7565b9150611b86826123c5565b604082019050919050565b6000611b9e602683611fe7565b9150611ba982612414565b604082019050919050565b6000611bc1602883611fe7565b9150611bcc82612463565b604082019050919050565b6000611be4602083611fe7565b9150611bef826124b2565b602082019050919050565b6000611c07602183611fe7565b9150611c12826124db565b604082019050919050565b6000611c2a602583611fe7565b9150611c358261252a565b604082019050919050565b6000611c4d601f83611fe7565b9150611c5882612579565b602082019050919050565b6000611c70602483611fe7565b9150611c7b826125a2565b604082019050919050565b6000611c93602583611fe7565b9150611c9e826125f1565b604082019050919050565b6000611cb6601f83611fe7565b9150611cc182612640565b602082019050919050565b611cd58161214b565b82525050565b611ce481612155565b82525050565b6000602082019050611cff6000830184611a7c565b92915050565b6000604082019050611d1a6000830185611a7c565b611d276020830184611a7c565b9392505050565b6000606082019050611d436000830186611a7c565b611d506020830185611a7c565b611d5d6040830184611ccc565b949350505050565b6000604082019050611d7a6000830185611a7c565b611d876020830184611ccc565b9392505050565b6000602082019050611da36000830184611a8b565b92915050565b6000602082019050611dbe6000830184611a9a565b92915050565b60006020820190508181036000830152611dde8184611aa9565b905092915050565b60006020820190508181036000830152611dff81611ae2565b9050919050565b60006020820190508181036000830152611e1f81611b05565b9050919050565b60006020820190508181036000830152611e3f81611b28565b9050919050565b60006020820190508181036000830152611e5f81611b4b565b9050919050565b60006020820190508181036000830152611e7f81611b6e565b9050919050565b60006020820190508181036000830152611e9f81611b91565b9050919050565b60006020820190508181036000830152611ebf81611bb4565b9050919050565b60006020820190508181036000830152611edf81611bd7565b9050919050565b60006020820190508181036000830152611eff81611bfa565b9050919050565b60006020820190508181036000830152611f1f81611c1d565b9050919050565b60006020820190508181036000830152611f3f81611c40565b9050919050565b60006020820190508181036000830152611f5f81611c63565b9050919050565b60006020820190508181036000830152611f7f81611c86565b9050919050565b60006020820190508181036000830152611f9f81611ca9565b9050919050565b6000602082019050611fbb6000830184611ccc565b92915050565b6000602082019050611fd66000830184611cdb565b92915050565b600081519050919050565b600082825260208201905092915050565b60006120038261214b565b915061200e8361214b565b9250827fffffffffffffffffffffffffffffffffffffffffffffffffffffffffffffffff03821115612043576120426121eb565b5b828201905092915050565b60006120598261214b565b91506120648361214b565b9250826120745761207361221a565b5b828204905092915050565b600061208a8261214b565b91506120958361214b565b9250817fffffffffffffffffffffffffffffffffffffffffffffffffffffffffffffffff04831182151516156120ce576120cd6121eb565b5b828202905092915050565b60006120e48261214b565b91506120ef8361214b565b925082821015612102576121016121eb565b5b828203905092915050565b60006121188261212b565b9050919050565b60008115159050919050565b600073ffffffffffffffffffffffffffffffffffffffff82169050919050565b6000819050919050565b600060ff82169050919050565b600061216d82612174565b9050919050565b600061217f8261212b565b9050919050565b60005b838110156121a4578082015181840152602081019050612189565b838111156121b3576000848401525b50505050565b600060028204905060018216806121d157607f821691505b602082108114156121e5576121e4612249565b5b50919050565b7f4e487b7100000000000000000000000000000000000000000000000000000000600052601160045260246000fd5b7f4e487b7100000000000000000000000000000000000000000000000000000000600052601260045260246000fd5b7f4e487b7100000000000000000000000000000000000000000000000000000000600052602260045260246000fd5b6000601f19601f8301169050919050565b7f45524332303a207472616e7366657220746f20746865207a65726f206164647260008201527f6573730000000000000000000000000000000000000000000000000000000000602082015250565b7f45524332303a206275726e20616d6f756e7420657863656564732062616c616e60008201527f6365000000000000000000000000000000000000000000000000000000000000602082015250565b7f4f776e61626c653a206e6577206f776e657220697320746865207a65726f206160008201527f6464726573730000000000000000000000000000000000000000000000000000602082015250565b7f45524332303a20617070726f766520746f20746865207a65726f20616464726560008201527f7373000000000000000000000000000000000000000000000000000000000000602082015250565b7f536d617274546f6b656e3a207472616e7366657220616d6f756e74206578636560008201527f65647320616c6c6f77616e636500000000000000000000000000000000000000602082015250565b7f45524332303a207472616e7366657220616d6f756e742065786365656473206260008201527f616c616e63650000000000000000000000000000000000000000000000000000602082015250565b7f45524332303a207472616e7366657220616d6f756e742065786365656473206160008201527f6c6c6f77616e6365000000000000000000000000000000000000000000000000602082015250565b7f4f776e61626c653a2063616c6c6572206973206e6f7420746865206f776e6572600082015250565b7f45524332303a206275726e2066726f6d20746865207a65726f2061646472657360008201527f7300000000000000000000000000000000000000000000000000000000000000602082015250565b7f45524332303a207472616e736665722066726f6d20746865207a65726f20616460008201527f6472657373000000000000000000000000000000000000000000000000000000602082015250565b7f536d617274546f6b656e3a20696e76616c69642073656c6c20616d6f756e7400600082015250565b7f45524332303a20617070726f76652066726f6d20746865207a65726f2061646460008201527f7265737300000000000000000000000000000000000000000000000000000000602082015250565b7f45524332303a2064656372656173656420616c6c6f77616e63652062656c6f7760008201527f207a65726f000000000000000000000000000000000000000000000000000000602082015250565b7f45524332303a206d696e7420746f20746865207a65726f206164647265737300600082015250565b6126728161210d565b811461267d57600080fd5b50565b6126898161211f565b811461269457600080fd5b50565b6126a08161214b565b81146126ab57600080fd5b5056fea264697066735822122041c0fe0b2d09ac60fd35cd6b223858b181acb3d84d963cf41d89c11921b8edd064736f6c63430008040033",
  "linkReferences": {},
  "deployedLinkReferences": {}
}