{
  "_format": "hh-sol-artifact-1",
  "contractName": "SmartToken",
  "sourceName": "contracts/SmartToken.sol",
  "abi": [
    {
      "inputs": [
        {
          "internalType": "string",
          "name": "_name",
          "type": "string"
        },
        {
          "internalType": "string",
          "name": "_symbol",
          "type": "string"
        },
        {
          "internalType": "contract IERC20",
          "name": "_token",
          "type": "address"
        }
      ],
      "stateMutability": "nonpayable",
      "type": "constructor"
    },
    {
      "anonymous": false,
      "inputs": [
        {
          "indexed": true,
          "internalType": "address",
          "name": "owner",
          "type": "address"
        },
        {
          "indexed": true,
          "internalType": "address",
          "name": "spender",
          "type": "address"
        },
        {
          "indexed": false,
          "internalType": "uint256",
          "name": "value",
          "type": "uint256"
        }
      ],
      "name": "Approval",
      "type": "event"
    },
    {
      "anonymous": false,
      "inputs": [
        {
          "indexed": true,
          "internalType": "address",
          "name": "buyer",
          "type": "address"
        },
        {
          "indexed": true,
          "internalType": "uint256",
          "name": "amount",
          "type": "uint256"
        },
        {
          "indexed": false,
          "internalType": "uint256",
          "name": "paid",
          "type": "uint256"
        }
      ],
      "name": "Buy",
      "type": "event"
    },
    {
      "anonymous": false,
      "inputs": [
        {
          "indexed": true,
          "internalType": "address",
          "name": "previousOwner",
          "type": "address"
        },
        {
          "indexed": true,
          "internalType": "address",
          "name": "newOwner",
          "type": "address"
        }
      ],
      "name": "OwnershipTransferred",
      "type": "event"
    },
    {
      "anonymous": false,
      "inputs": [
        {
          "indexed": true,
          "internalType": "address",
          "name": "seller",
          "type": "address"
        },
        {
          "indexed": true,
          "internalType": "uint256",
          "name": "amount",
          "type": "uint256"
        },
        {
          "indexed": false,
          "internalType": "uint256",
          "name": "received",
          "type": "uint256"
        }
      ],
      "name": "Sell",
      "type": "event"
    },
    {
      "anonymous": false,
      "inputs": [
        {
          "indexed": true,
          "internalType": "address",
          "name": "from",
          "type": "address"
        },
        {
          "indexed": true,
          "internalType": "address",
          "name": "to",
          "type": "address"
        },
        {
          "indexed": false,
          "internalType": "uint256",
          "name": "value",
          "type": "uint256"
        }
      ],
      "name": "Transfer",
      "type": "event"
    },
    {
      "inputs": [
        {
          "internalType": "address",
          "name": "owner",
          "type": "address"
        },
        {
          "internalType": "address",
          "name": "spender",
          "type": "address"
        }
      ],
      "name": "allowance",
      "outputs": [
        {
          "internalType": "uint256",
          "name": "",
          "type": "uint256"
        }
      ],
      "stateMutability": "view",
      "type": "function"
    },
    {
      "inputs": [
        {
          "internalType": "address",
          "name": "spender",
          "type": "address"
        },
        {
          "internalType": "uint256",
          "name": "amount",
          "type": "uint256"
        }
      ],
      "name": "approve",
      "outputs": [
        {
          "internalType": "bool",
          "name": "",
          "type": "bool"
        }
      ],
      "stateMutability": "nonpayable",
      "type": "function"
    },
    {
      "inputs": [
        {
          "internalType": "address",
          "name": "account",
          "type": "address"
        }
      ],
      "name": "balanceOf",
      "outputs": [
        {
          "internalType": "uint256",
          "name": "",
          "type": "uint256"
        }
      ],
      "stateMutability": "view",
      "type": "function"
    },
    {
      "inputs": [
        {
          "internalType": "uint256",
          "name": "_amount",
          "type": "uint256"
        }
      ],
      "name": "buy",
      "outputs": [],
      "stateMutability": "nonpayable",
      "type": "function"
    },
    {
      "inputs": [
        {
          "internalType": "uint256",
          "name": "_tokenSupply",
          "type": "uint256"
        },
        {
          "internalType": "uint256",
          "name": "_purchaseAmount",
          "type": "uint256"
        }
      ],
      "name": "calculatePurchaseReturn",
      "outputs": [
        {
          "internalType": "uint256",
          "name": "",
          "type": "uint256"
        }
      ],
      "stateMutability": "view",
      "type": "function"
    },
    {
      "inputs": [
        {
          "internalType": "uint256",
          "name": "_tokenSupply",
          "type": "uint256"
        },
        {
          "internalType": "uint256",
          "name": "_sellAmount",
          "type": "uint256"
        }
      ],
      "name": "calculateSalesReturn",
      "outputs": [
        {
          "internalType": "uint256",
          "name": "",
          "type": "uint256"
        }
      ],
      "stateMutability": "view",
      "type": "function"
    },
    {
      "inputs": [],
      "name": "decimals",
      "outputs": [
        {
          "internalType": "uint8",
          "name": "",
          "type": "uint8"
        }
      ],
      "stateMutability": "view",
      "type": "function"
    },
    {
      "inputs": [
        {
          "internalType": "address",
          "name": "spender",
          "type": "address"
        },
        {
          "internalType": "uint256",
          "name": "subtractedValue",
          "type": "uint256"
        }
      ],
      "name": "decreaseAllowance",
      "outputs": [
        {
          "internalType": "bool",
          "name": "",
          "type": "bool"
        }
      ],
      "stateMutability": "nonpayable",
      "type": "function"
    },
    {
      "inputs": [
        {
          "internalType": "uint256",
          "name": "_x",
          "type": "uint256"
        }
      ],
      "name": "exponent",
      "outputs": [
        {
          "internalType": "uint256",
          "name": "",
          "type": "uint256"
        }
      ],
      "stateMutability": "view",
      "type": "function"
    },
    {
      "inputs": [
        {
          "internalType": "uint256",
          "name": "_amount",
          "type": "uint256"
        }
      ],
      "name": "getBuyPrice",
      "outputs": [
        {
          "internalType": "uint256",
          "name": "",
          "type": "uint256"
        }
      ],
      "stateMutability": "view",
      "type": "function"
    },
    {
      "inputs": [
        {
          "internalType": "uint256",
          "name": "_amount",
          "type": "uint256"
        }
      ],
      "name": "getSellPrice",
      "outputs": [
        {
          "internalType": "uint256",
          "name": "",
          "type": "uint256"
        }
      ],
      "stateMutability": "view",
      "type": "function"
    },
    {
      "inputs": [
        {
          "internalType": "address",
          "name": "spender",
          "type": "address"
        },
        {
          "internalType": "uint256",
          "name": "addedValue",
          "type": "uint256"
        }
      ],
      "name": "increaseAllowance",
      "outputs": [
        {
          "internalType": "bool",
          "name": "",
          "type": "bool"
        }
      ],
      "stateMutability": "nonpayable",
      "type": "function"
    },
    {
      "inputs": [
        {
          "internalType": "address",
          "name": "_account",
          "type": "address"
        },
        {
          "internalType": "uint256",
          "name": "_amount",
          "type": "uint256"
        }
      ],
      "name": "mint",
      "outputs": [],
      "stateMutability": "nonpayable",
      "type": "function"
    },
    {
      "inputs": [],
      "name": "name",
      "outputs": [
        {
          "internalType": "string",
          "name": "",
          "type": "string"
        }
      ],
      "stateMutability": "view",
      "type": "function"
    },
    {
      "inputs": [],
      "name": "owner",
      "outputs": [
        {
          "internalType": "address",
          "name": "",
          "type": "address"
        }
      ],
      "stateMutability": "view",
      "type": "function"
    },
    {
      "inputs": [],
      "name": "renounceOwnership",
      "outputs": [],
      "stateMutability": "nonpayable",
      "type": "function"
    },
    {
      "inputs": [],
      "name": "reserveToken",
      "outputs": [
        {
          "internalType": "contract IERC20",
          "name": "",
          "type": "address"
        }
      ],
      "stateMutability": "view",
      "type": "function"
    },
    {
      "inputs": [
        {
          "internalType": "uint256",
          "name": "_amount",
          "type": "uint256"
        }
      ],
      "name": "sell",
      "outputs": [],
      "stateMutability": "nonpayable",
      "type": "function"
    },
    {
      "inputs": [],
      "name": "symbol",
      "outputs": [
        {
          "internalType": "string",
          "name": "",
          "type": "string"
        }
      ],
      "stateMutability": "view",
      "type": "function"
    },
    {
      "inputs": [],
      "name": "totalSupply",
      "outputs": [
        {
          "internalType": "uint256",
          "name": "",
          "type": "uint256"
        }
      ],
      "stateMutability": "view",
      "type": "function"
    },
    {
      "inputs": [
        {
          "internalType": "address",
          "name": "recipient",
          "type": "address"
        },
        {
          "internalType": "uint256",
          "name": "amount",
          "type": "uint256"
        }
      ],
      "name": "transfer",
      "outputs": [
        {
          "internalType": "bool",
          "name": "",
          "type": "bool"
        }
      ],
      "stateMutability": "nonpayable",
      "type": "function"
    },
    {
      "inputs": [
        {
          "internalType": "address",
          "name": "sender",
          "type": "address"
        },
        {
          "internalType": "address",
          "name": "recipient",
          "type": "address"
        },
        {
          "internalType": "uint256",
          "name": "amount",
          "type": "uint256"
        }
      ],
      "name": "transferFrom",
      "outputs": [
        {
          "internalType": "bool",
          "name": "",
          "type": "bool"
        }
      ],
      "stateMutability": "nonpayable",
      "type": "function"
    },
    {
      "inputs": [
        {
          "internalType": "address",
          "name": "newOwner",
          "type": "address"
        }
      ],
      "name": "transferOwnership",
      "outputs": [],
      "stateMutability": "nonpayable",
      "type": "function"
    }
  ],
  "bytecode": "0x60a06040523480156200001157600080fd5b5060405162002d8538038062002d858339818101604052810190620000379190620002d4565b82828160039080519060200190620000519291906200019b565b5080600490805190602001906200006a9291906200019b565b5050506200008d62000081620000cd60201b60201c565b620000d560201b60201c565b8073ffffffffffffffffffffffffffffffffffffffff1660808173ffffffffffffffffffffffffffffffffffffffff1660601b815250505050506200052e565b600033905090565b6000600560009054906101000a900473ffffffffffffffffffffffffffffffffffffffff16905081600560006101000a81548173ffffffffffffffffffffffffffffffffffffffff021916908373ffffffffffffffffffffffffffffffffffffffff1602179055508173ffffffffffffffffffffffffffffffffffffffff168173ffffffffffffffffffffffffffffffffffffffff167f8be0079c531659141344cd1fd0a4f28419497f9722a3daafe3b4186f6b6457e060405160405180910390a35050565b828054620001a99062000439565b90600052602060002090601f016020900481019282620001cd576000855562000219565b82601f10620001e857805160ff191683800117855562000219565b8280016001018555821562000219579182015b8281111562000218578251825591602001919060010190620001fb565b5b5090506200022891906200022c565b5090565b5b80821115620002475760008160009055506001016200022d565b5090565b6000620002626200025c8462000385565b6200035c565b9050828152602081018484840111156200027b57600080fd5b6200028884828562000403565b509392505050565b600081519050620002a18162000514565b92915050565b600082601f830112620002b957600080fd5b8151620002cb8482602086016200024b565b91505092915050565b600080600060608486031215620002ea57600080fd5b600084015167ffffffffffffffff8111156200030557600080fd5b6200031386828701620002a7565b935050602084015167ffffffffffffffff8111156200033157600080fd5b6200033f86828701620002a7565b9250506040620003528682870162000290565b9150509250925092565b6000620003686200037b565b90506200037682826200046f565b919050565b6000604051905090565b600067ffffffffffffffff821115620003a357620003a2620004d4565b5b620003ae8262000503565b9050602081019050919050565b6000620003c882620003e3565b9050919050565b6000620003dc82620003bb565b9050919050565b600073ffffffffffffffffffffffffffffffffffffffff82169050919050565b60005b838110156200042357808201518184015260208101905062000406565b8381111562000433576000848401525b50505050565b600060028204905060018216806200045257607f821691505b60208210811415620004695762000468620004a5565b5b50919050565b6200047a8262000503565b810181811067ffffffffffffffff821117156200049c576200049b620004d4565b5b80604052505050565b7f4e487b7100000000000000000000000000000000000000000000000000000000600052602260045260246000fd5b7f4e487b7100000000000000000000000000000000000000000000000000000000600052604160045260246000fd5b6000601f19601f8301169050919050565b6200051f81620003cf565b81146200052b57600080fd5b50565b60805160601c6128236200056260003960008181610bd801528181610cc401528181610ede01526110d701526128236000f3fe608060405234801561001057600080fd5b506004361061014d5760003560e01c8063715018a6116100c3578063ba730e531161007c578063ba730e53146103ee578063d96a094a1461041e578063dd62ed3e1461043a578063e4849b321461046a578063f2fde38b14610486578063f4325d67146104a25761014d565b8063715018a6146103185780638da5cb5b1461032257806395d89b4114610340578063a457c2d71461035e578063a9059cbb1461038e578063ace4e824146103be5761014d565b806318160ddd1161011557806318160ddd1461023057806323b872dd1461024e578063313ce5671461027e578063395093511461029c57806340c10f19146102cc57806370a08231146102e85761014d565b806306fdde031461015257806308d4db1414610170578063095ea7b3146101a05780630e24a12a146101d05780630f80fc5814610200575b600080fd5b61015a6104c0565b6040516101679190611eba565b60405180910390f35b61018a60048036038101906101859190611ac1565b610552565b60405161019791906120bc565b60405180910390f35b6101ba60048036038101906101b59190611a5c565b610588565b6040516101c79190611e84565b60405180910390f35b6101ea60048036038101906101e59190611b13565b6105a6565b6040516101f791906120bc565b60405180910390f35b61021a60048036038101906102159190611ac1565b6105fa565b60405161022791906120bc565b60405180910390f35b61023861060f565b60405161024591906120bc565b60405180910390f35b61026860048036038101906102639190611a0d565b610619565b6040516102759190611e84565b60405180910390f35b610286610711565b60405161029391906120d7565b60405180910390f35b6102b660048036038101906102b19190611a5c565b61071a565b6040516102c39190611e84565b60405180910390f35b6102e660048036038101906102e19190611a5c565b6107c6565b005b61030260048036038101906102fd91906119a8565b610850565b60405161030f91906120bc565b60405180910390f35b610320610898565b005b61032a610920565b6040516103379190611de0565b60405180910390f35b61034861094a565b6040516103559190611eba565b60405180910390f35b61037860048036038101906103739190611a5c565b6109dc565b6040516103859190611e84565b60405180910390f35b6103a860048036038101906103a39190611a5c565b610ac7565b6040516103b59190611e84565b60405180910390f35b6103d860048036038101906103d39190611b13565b610ae5565b6040516103e591906120bc565b60405180910390f35b61040860048036038101906104039190611ac1565b610b39565b60405161041591906120bc565b60405180910390f35b61043860048036038101906104339190611ac1565b610bb2565b005b610454600480360381019061044f91906119d1565b610dcf565b60405161046191906120bc565b60405180910390f35b610484600480360381019061047f9190611ac1565b610e56565b005b6104a0600480360381019061049b91906119a8565b610fdd565b005b6104aa6110d5565b6040516104b79190611e9f565b60405180910390f35b6060600380546104cf906122cf565b80601f01602080910402602001604051908101604052809291908181526020018280546104fb906122cf565b80156105485780601f1061051d57610100808354040283529160200191610548565b820191906000526020600020905b81548152906001019060200180831161052b57829003601f168201915b5050505050905090565b6000670de0b6b3a7640000826105689190612164565b9150600061057461060f565b90506105808184610ae5565b915050919050565b600061059c6105956110f9565b8484611101565b6001905092915050565b60008060026105b4856105fa565b6105be9190612164565b9050600060026105d885876105d391906121ef565b6105fa565b6105e29190612164565b905080826105f091906121ef565b9250505092915050565b600081826106089190612195565b9050919050565b6000600254905090565b60006106268484846112cc565b6000600160008673ffffffffffffffffffffffffffffffffffffffff1673ffffffffffffffffffffffffffffffffffffffff16815260200190815260200160002060006106716110f9565b73ffffffffffffffffffffffffffffffffffffffff1673ffffffffffffffffffffffffffffffffffffffff168152602001908152602001600020549050828110156106f1576040517f08c379a00000000000000000000000000000000000000000000000000000000081526004016106e890611fbc565b60405180910390fd5b610705856106fd6110f9565b858403611101565b60019150509392505050565b60006012905090565b60006107bc6107276110f9565b8484600160006107356110f9565b73ffffffffffffffffffffffffffffffffffffffff1673ffffffffffffffffffffffffffffffffffffffff16815260200190815260200160002060008873ffffffffffffffffffffffffffffffffffffffff1673ffffffffffffffffffffffffffffffffffffffff168152602001908152602001600020546107b7919061210e565b611101565b6001905092915050565b6107ce6110f9565b73ffffffffffffffffffffffffffffffffffffffff166107ec610920565b73ffffffffffffffffffffffffffffffffffffffff1614610842576040517f08c379a000000000000000000000000000000000000000000000000000000000815260040161083990611fdc565b60405180910390fd5b61084c828261154d565b5050565b60008060008373ffffffffffffffffffffffffffffffffffffffff1673ffffffffffffffffffffffffffffffffffffffff168152602001908152602001600020549050919050565b6108a06110f9565b73ffffffffffffffffffffffffffffffffffffffff166108be610920565b73ffffffffffffffffffffffffffffffffffffffff1614610914576040517f08c379a000000000000000000000000000000000000000000000000000000000815260040161090b90611fdc565b60405180910390fd5b61091e60006116ad565b565b6000600560009054906101000a900473ffffffffffffffffffffffffffffffffffffffff16905090565b606060048054610959906122cf565b80601f0160208091040260200160405190810160405280929190818152602001828054610985906122cf565b80156109d25780601f106109a7576101008083540402835291602001916109d2565b820191906000526020600020905b8154815290600101906020018083116109b557829003601f168201915b5050505050905090565b600080600160006109eb6110f9565b73ffffffffffffffffffffffffffffffffffffffff1673ffffffffffffffffffffffffffffffffffffffff16815260200190815260200160002060008573ffffffffffffffffffffffffffffffffffffffff1673ffffffffffffffffffffffffffffffffffffffff16815260200190815260200160002054905082811015610aa8576040517f08c379a0000000000000000000000000000000000000000000000000000000008152600401610a9f9061207c565b60405180910390fd5b610abc610ab36110f9565b85858403611101565b600191505092915050565b6000610adb610ad46110f9565b84846112cc565b6001905092915050565b6000806002610afe8486610af9919061210e565b6105fa565b610b089190612164565b905060006002610b17866105fa565b610b219190612164565b90508082610b2f91906121ef565b9250505092915050565b6000670de0b6b3a764000082610b4f9190612164565b91506000610b5b61060f565b905082811015610ba0576040517f08c379a0000000000000000000000000000000000000000000000000000000008152600401610b9790611f9c565b60405180910390fd5b610baa81846105a6565b915050919050565b6000610bbd82610552565b9050670de0b6b3a764000081610bd39190612195565b9050807f000000000000000000000000000000000000000000000000000000000000000073ffffffffffffffffffffffffffffffffffffffff1663dd62ed3e33306040518363ffffffff1660e01b8152600401610c31929190611dfb565b60206040518083038186803b158015610c4957600080fd5b505afa158015610c5d573d6000803e3d6000fd5b505050506040513d601f19601f82011682018060405250810190610c819190611aea565b1015610cc2576040517f08c379a0000000000000000000000000000000000000000000000000000000008152600401610cb990611f5c565b60405180910390fd5b7f000000000000000000000000000000000000000000000000000000000000000073ffffffffffffffffffffffffffffffffffffffff166323b872dd3330846040518463ffffffff1660e01b8152600401610d1f93929190611e24565b602060405180830381600087803b158015610d3957600080fd5b505af1158015610d4d573d6000803e3d6000fd5b505050506040513d601f19601f82011682018060405250810190610d719190611a98565b50610d7c338361154d565b813373ffffffffffffffffffffffffffffffffffffffff167f1cbc5ab135991bd2b6a4b034a04aa2aa086dac1371cb9b16b8b5e2ed6b036bed83604051610dc391906120bc565b60405180910390a35050565b6000600160008473ffffffffffffffffffffffffffffffffffffffff1673ffffffffffffffffffffffffffffffffffffffff16815260200190815260200160002060008373ffffffffffffffffffffffffffffffffffffffff1673ffffffffffffffffffffffffffffffffffffffff16815260200190815260200160002054905092915050565b60008111610e99576040517f08c379a0000000000000000000000000000000000000000000000000000000008152600401610e909061203c565b60405180910390fd5b6000610ea482610b39565b9050670de0b6b3a764000081610eba9190612195565b9050670de0b6b3a764000082610ed09190612164565b9150610edc3383611773565b7f000000000000000000000000000000000000000000000000000000000000000073ffffffffffffffffffffffffffffffffffffffff1663a9059cbb33836040518363ffffffff1660e01b8152600401610f37929190611e5b565b602060405180830381600087803b158015610f5157600080fd5b505af1158015610f65573d6000803e3d6000fd5b505050506040513d601f19601f82011682018060405250810190610f899190611a98565b50813373ffffffffffffffffffffffffffffffffffffffff167fed7a144fad14804d5c249145e3e0e2b63a9eb455b76aee5bc92d711e9bba3e4a83604051610fd191906120bc565b60405180910390a35050565b610fe56110f9565b73ffffffffffffffffffffffffffffffffffffffff16611003610920565b73ffffffffffffffffffffffffffffffffffffffff1614611059576040517f08c379a000000000000000000000000000000000000000000000000000000000815260040161105090611fdc565b60405180910390fd5b600073ffffffffffffffffffffffffffffffffffffffff168173ffffffffffffffffffffffffffffffffffffffff1614156110c9576040517f08c379a00000000000000000000000000000000000000000000000000000000081526004016110c090611f1c565b60405180910390fd5b6110d2816116ad565b50565b7f000000000000000000000000000000000000000000000000000000000000000081565b600033905090565b600073ffffffffffffffffffffffffffffffffffffffff168373ffffffffffffffffffffffffffffffffffffffff161415611171576040517f08c379a00000000000000000000000000000000000000000000000000000000081526004016111689061205c565b60405180910390fd5b600073ffffffffffffffffffffffffffffffffffffffff168273ffffffffffffffffffffffffffffffffffffffff1614156111e1576040517f08c379a00000000000000000000000000000000000000000000000000000000081526004016111d890611f3c565b60405180910390fd5b80600160008573ffffffffffffffffffffffffffffffffffffffff1673ffffffffffffffffffffffffffffffffffffffff16815260200190815260200160002060008473ffffffffffffffffffffffffffffffffffffffff1673ffffffffffffffffffffffffffffffffffffffff168152602001908152602001600020819055508173ffffffffffffffffffffffffffffffffffffffff168373ffffffffffffffffffffffffffffffffffffffff167f8c5be1e5ebec7d5bd14f71427d1e84f3dd0314c0f7b2291e5b200ac8c7c3b925836040516112bf91906120bc565b60405180910390a3505050565b600073ffffffffffffffffffffffffffffffffffffffff168373ffffffffffffffffffffffffffffffffffffffff16141561133c576040517f08c379a00000000000000000000000000000000000000000000000000000000081526004016113339061201c565b60405180910390fd5b600073ffffffffffffffffffffffffffffffffffffffff168273ffffffffffffffffffffffffffffffffffffffff1614156113ac576040517f08c379a00000000000000000000000000000000000000000000000000000000081526004016113a390611edc565b60405180910390fd5b6113b783838361194a565b60008060008573ffffffffffffffffffffffffffffffffffffffff1673ffffffffffffffffffffffffffffffffffffffff1681526020019081526020016000205490508181101561143d576040517f08c379a000000000000000000000000000000000000000000000000000000000815260040161143490611f7c565b60405180910390fd5b8181036000808673ffffffffffffffffffffffffffffffffffffffff1673ffffffffffffffffffffffffffffffffffffffff16815260200190815260200160002081905550816000808573ffffffffffffffffffffffffffffffffffffffff1673ffffffffffffffffffffffffffffffffffffffff16815260200190815260200160002060008282546114d0919061210e565b925050819055508273ffffffffffffffffffffffffffffffffffffffff168473ffffffffffffffffffffffffffffffffffffffff167fddf252ad1be2c89b69c2b068fc378daa952ba7f163c4a11628f55a4df523b3ef8460405161153491906120bc565b60405180910390a361154784848461194f565b50505050565b600073ffffffffffffffffffffffffffffffffffffffff168273ffffffffffffffffffffffffffffffffffffffff1614156115bd576040517f08c379a00000000000000000000000000000000000000000000000000000000081526004016115b49061209c565b60405180910390fd5b6115c96000838361194a565b80600260008282546115db919061210e565b92505081905550806000808473ffffffffffffffffffffffffffffffffffffffff1673ffffffffffffffffffffffffffffffffffffffff1681526020019081526020016000206000828254611630919061210e565b925050819055508173ffffffffffffffffffffffffffffffffffffffff16600073ffffffffffffffffffffffffffffffffffffffff167fddf252ad1be2c89b69c2b068fc378daa952ba7f163c4a11628f55a4df523b3ef8360405161169591906120bc565b60405180910390a36116a96000838361194f565b5050565b6000600560009054906101000a900473ffffffffffffffffffffffffffffffffffffffff16905081600560006101000a81548173ffffffffffffffffffffffffffffffffffffffff021916908373ffffffffffffffffffffffffffffffffffffffff1602179055508173ffffffffffffffffffffffffffffffffffffffff168173ffffffffffffffffffffffffffffffffffffffff167f8be0079c531659141344cd1fd0a4f28419497f9722a3daafe3b4186f6b6457e060405160405180910390a35050565b600073ffffffffffffffffffffffffffffffffffffffff168273ffffffffffffffffffffffffffffffffffffffff1614156117e3576040517f08c379a00000000000000000000000000000000000000000000000000000000081526004016117da90611ffc565b60405180910390fd5b6117ef8260008361194a565b60008060008473ffffffffffffffffffffffffffffffffffffffff1673ffffffffffffffffffffffffffffffffffffffff16815260200190815260200160002054905081811015611875576040517f08c379a000000000000000000000000000000000000000000000000000000000815260040161186c90611efc565b60405180910390fd5b8181036000808573ffffffffffffffffffffffffffffffffffffffff1673ffffffffffffffffffffffffffffffffffffffff1681526020019081526020016000208190555081600260008282546118cc91906121ef565b92505081905550600073ffffffffffffffffffffffffffffffffffffffff168373ffffffffffffffffffffffffffffffffffffffff167fddf252ad1be2c89b69c2b068fc378daa952ba7f163c4a11628f55a4df523b3ef8460405161193191906120bc565b60405180910390a36119458360008461194f565b505050565b505050565b505050565b600081359050611963816127a8565b92915050565b600081519050611978816127bf565b92915050565b60008135905061198d816127d6565b92915050565b6000815190506119a2816127d6565b92915050565b6000602082840312156119ba57600080fd5b60006119c884828501611954565b91505092915050565b600080604083850312156119e457600080fd5b60006119f285828601611954565b9250506020611a0385828601611954565b9150509250929050565b600080600060608486031215611a2257600080fd5b6000611a3086828701611954565b9350506020611a4186828701611954565b9250506040611a528682870161197e565b9150509250925092565b60008060408385031215611a6f57600080fd5b6000611a7d85828601611954565b9250506020611a8e8582860161197e565b9150509250929050565b600060208284031215611aaa57600080fd5b6000611ab884828501611969565b91505092915050565b600060208284031215611ad357600080fd5b6000611ae18482850161197e565b91505092915050565b600060208284031215611afc57600080fd5b6000611b0a84828501611993565b91505092915050565b60008060408385031215611b2657600080fd5b6000611b348582860161197e565b9250506020611b458582860161197e565b9150509250929050565b611b5881612223565b82525050565b611b6781612235565b82525050565b611b7681612278565b82525050565b6000611b87826120f2565b611b9181856120fd565b9350611ba181856020860161229c565b611baa8161238e565b840191505092915050565b6000611bc26023836120fd565b9150611bcd8261239f565b604082019050919050565b6000611be56022836120fd565b9150611bf0826123ee565b604082019050919050565b6000611c086026836120fd565b9150611c138261243d565b604082019050919050565b6000611c2b6022836120fd565b9150611c368261248c565b604082019050919050565b6000611c4e602d836120fd565b9150611c59826124db565b604082019050919050565b6000611c716026836120fd565b9150611c7c8261252a565b604082019050919050565b6000611c94600c836120fd565b9150611c9f82612579565b602082019050919050565b6000611cb76028836120fd565b9150611cc2826125a2565b604082019050919050565b6000611cda6020836120fd565b9150611ce5826125f1565b602082019050919050565b6000611cfd6021836120fd565b9150611d088261261a565b604082019050919050565b6000611d206025836120fd565b9150611d2b82612669565b604082019050919050565b6000611d43601f836120fd565b9150611d4e826126b8565b602082019050919050565b6000611d666024836120fd565b9150611d71826126e1565b604082019050919050565b6000611d896025836120fd565b9150611d9482612730565b604082019050919050565b6000611dac601f836120fd565b9150611db78261277f565b602082019050919050565b611dcb81612261565b82525050565b611dda8161226b565b82525050565b6000602082019050611df56000830184611b4f565b92915050565b6000604082019050611e106000830185611b4f565b611e1d6020830184611b4f565b9392505050565b6000606082019050611e396000830186611b4f565b611e466020830185611b4f565b611e536040830184611dc2565b949350505050565b6000604082019050611e706000830185611b4f565b611e7d6020830184611dc2565b9392505050565b6000602082019050611e996000830184611b5e565b92915050565b6000602082019050611eb46000830184611b6d565b92915050565b60006020820190508181036000830152611ed48184611b7c565b905092915050565b60006020820190508181036000830152611ef581611bb5565b9050919050565b60006020820190508181036000830152611f1581611bd8565b9050919050565b60006020820190508181036000830152611f3581611bfb565b9050919050565b60006020820190508181036000830152611f5581611c1e565b9050919050565b60006020820190508181036000830152611f7581611c41565b9050919050565b60006020820190508181036000830152611f9581611c64565b9050919050565b60006020820190508181036000830152611fb581611c87565b9050919050565b60006020820190508181036000830152611fd581611caa565b9050919050565b60006020820190508181036000830152611ff581611ccd565b9050919050565b6000602082019050818103600083015261201581611cf0565b9050919050565b6000602082019050818103600083015261203581611d13565b9050919050565b6000602082019050818103600083015261205581611d36565b9050919050565b6000602082019050818103600083015261207581611d59565b9050919050565b6000602082019050818103600083015261209581611d7c565b9050919050565b600060208201905081810360008301526120b581611d9f565b9050919050565b60006020820190506120d16000830184611dc2565b92915050565b60006020820190506120ec6000830184611dd1565b92915050565b600081519050919050565b600082825260208201905092915050565b600061211982612261565b915061212483612261565b9250827fffffffffffffffffffffffffffffffffffffffffffffffffffffffffffffffff0382111561215957612158612301565b5b828201905092915050565b600061216f82612261565b915061217a83612261565b92508261218a57612189612330565b5b828204905092915050565b60006121a082612261565b91506121ab83612261565b9250817fffffffffffffffffffffffffffffffffffffffffffffffffffffffffffffffff04831182151516156121e4576121e3612301565b5b828202905092915050565b60006121fa82612261565b915061220583612261565b92508282101561221857612217612301565b5b828203905092915050565b600061222e82612241565b9050919050565b60008115159050919050565b600073ffffffffffffffffffffffffffffffffffffffff82169050919050565b6000819050919050565b600060ff82169050919050565b60006122838261228a565b9050919050565b600061229582612241565b9050919050565b60005b838110156122ba57808201518184015260208101905061229f565b838111156122c9576000848401525b50505050565b600060028204905060018216806122e757607f821691505b602082108114156122fb576122fa61235f565b5b50919050565b7f4e487b7100000000000000000000000000000000000000000000000000000000600052601160045260246000fd5b7f4e487b7100000000000000000000000000000000000000000000000000000000600052601260045260246000fd5b7f4e487b7100000000000000000000000000000000000000000000000000000000600052602260045260246000fd5b6000601f19601f8301169050919050565b7f45524332303a207472616e7366657220746f20746865207a65726f206164647260008201527f6573730000000000000000000000000000000000000000000000000000000000602082015250565b7f45524332303a206275726e20616d6f756e7420657863656564732062616c616e60008201527f6365000000000000000000000000000000000000000000000000000000000000602082015250565b7f4f776e61626c653a206e6577206f776e657220697320746865207a65726f206160008201527f6464726573730000000000000000000000000000000000000000000000000000602082015250565b7f45524332303a20617070726f766520746f20746865207a65726f20616464726560008201527f7373000000000000000000000000000000000000000000000000000000000000602082015250565b7f536d617274546f6b656e3a207472616e7366657220616d6f756e74206578636560008201527f65647320616c6c6f77616e636500000000000000000000000000000000000000602082015250565b7f45524332303a207472616e7366657220616d6f756e742065786365656473206260008201527f616c616e63650000000000000000000000000000000000000000000000000000602082015250565b7f536d617274546f6b656e3a200000000000000000000000000000000000000000600082015250565b7f45524332303a207472616e7366657220616d6f756e742065786365656473206160008201527f6c6c6f77616e6365000000000000000000000000000000000000000000000000602082015250565b7f4f776e61626c653a2063616c6c6572206973206e6f7420746865206f776e6572600082015250565b7f45524332303a206275726e2066726f6d20746865207a65726f2061646472657360008201527f7300000000000000000000000000000000000000000000000000000000000000602082015250565b7f45524332303a207472616e736665722066726f6d20746865207a65726f20616460008201527f6472657373000000000000000000000000000000000000000000000000000000602082015250565b7f536d617274546f6b656e3a20696e76616c69642073656c6c20616d6f756e7400600082015250565b7f45524332303a20617070726f76652066726f6d20746865207a65726f2061646460008201527f7265737300000000000000000000000000000000000000000000000000000000602082015250565b7f45524332303a2064656372656173656420616c6c6f77616e63652062656c6f7760008201527f207a65726f000000000000000000000000000000000000000000000000000000602082015250565b7f45524332303a206d696e7420746f20746865207a65726f206164647265737300600082015250565b6127b181612223565b81146127bc57600080fd5b50565b6127c881612235565b81146127d357600080fd5b50565b6127df81612261565b81146127ea57600080fd5b5056fea2646970667358221220ca48ad35c10d3e965f0e8c942fbd8da6a937756c976622fdf92741ee0752420164736f6c63430008040033",
  "linkReferences": {},
  "deployedLinkReferences": {}
}